{
  "_format": "hh-sol-artifact-1",
  "contractName": "SSVNetworkViews",
  "sourceName": "contracts/SSVNetworkViews.sol",
  "abi": [
    {
      "inputs": [],
      "stateMutability": "nonpayable",
      "type": "constructor"
    },
    {
      "inputs": [],
      "name": "ApprovalNotWithinTimeframe",
      "type": "error"
    },
    {
      "inputs": [],
      "name": "CallerNotOwner",
      "type": "error"
    },
    {
      "inputs": [],
      "name": "CallerNotWhitelisted",
      "type": "error"
    },
    {
      "inputs": [],
      "name": "ClusterAlreadyEnabled",
      "type": "error"
    },
    {
      "inputs": [],
      "name": "ClusterDoesNotExists",
      "type": "error"
    },
    {
      "inputs": [],
      "name": "ClusterIsLiquidated",
      "type": "error"
    },
    {
      "inputs": [],
      "name": "ClusterNotLiquidatable",
      "type": "error"
    },
    {
      "inputs": [],
      "name": "ExceedValidatorLimit",
      "type": "error"
    },
    {
      "inputs": [],
      "name": "FeeExceedsIncreaseLimit",
      "type": "error"
    },
    {
      "inputs": [],
      "name": "FeeIncreaseNotAllowed",
      "type": "error"
    },
    {
      "inputs": [],
      "name": "FeeTooLow",
      "type": "error"
    },
    {
      "inputs": [],
      "name": "IncorrectClusterState",
      "type": "error"
    },
    {
      "inputs": [],
      "name": "IncorrectValidatorState",
      "type": "error"
    },
    {
      "inputs": [],
      "name": "InsufficientBalance",
      "type": "error"
    },
    {
      "inputs": [],
      "name": "InvalidOperatorIdsLength",
      "type": "error"
    },
    {
      "inputs": [],
      "name": "InvalidPublicKeyLength",
      "type": "error"
    },
    {
      "inputs": [],
      "name": "MaxValueExceeded",
      "type": "error"
    },
    {
      "inputs": [],
      "name": "NewBlockPeriodIsBelowMinimum",
      "type": "error"
    },
    {
      "inputs": [],
      "name": "NoFeeDeclared",
      "type": "error"
    },
    {
      "inputs": [],
      "name": "NotAuthorized",
      "type": "error"
    },
    {
      "inputs": [],
      "name": "OperatorAlreadyExists",
      "type": "error"
    },
    {
      "inputs": [],
      "name": "OperatorDoesNotExist",
      "type": "error"
    },
    {
      "inputs": [],
      "name": "OperatorsListNotUnique",
      "type": "error"
    },
    {
      "inputs": [],
      "name": "SameFeeChangeNotAllowed",
      "type": "error"
    },
    {
      "inputs": [],
      "name": "TargetModuleDoesNotExist",
      "type": "error"
    },
    {
      "inputs": [],
      "name": "TokenTransferFailed",
      "type": "error"
    },
    {
      "inputs": [],
      "name": "UnsortedOperatorsList",
      "type": "error"
    },
    {
      "inputs": [],
      "name": "ValidatorAlreadyExists",
      "type": "error"
    },
    {
      "inputs": [],
      "name": "ValidatorDoesNotExist",
      "type": "error"
    },
    {
      "anonymous": false,
      "inputs": [
        {
          "indexed": false,
          "internalType": "address",
          "name": "previousAdmin",
          "type": "address"
        },
        {
          "indexed": false,
          "internalType": "address",
          "name": "newAdmin",
          "type": "address"
        }
      ],
      "name": "AdminChanged",
      "type": "event"
    },
    {
      "anonymous": false,
      "inputs": [
        {
          "indexed": true,
          "internalType": "address",
          "name": "beacon",
          "type": "address"
        }
      ],
      "name": "BeaconUpgraded",
      "type": "event"
    },
    {
      "anonymous": false,
      "inputs": [
        {
          "indexed": false,
          "internalType": "uint8",
          "name": "version",
          "type": "uint8"
        }
      ],
      "name": "Initialized",
      "type": "event"
    },
    {
      "anonymous": false,
      "inputs": [
        {
          "indexed": true,
          "internalType": "address",
          "name": "previousOwner",
          "type": "address"
        },
        {
          "indexed": true,
          "internalType": "address",
          "name": "newOwner",
          "type": "address"
        }
      ],
      "name": "OwnershipTransferStarted",
      "type": "event"
    },
    {
      "anonymous": false,
      "inputs": [
        {
          "indexed": true,
          "internalType": "address",
          "name": "previousOwner",
          "type": "address"
        },
        {
          "indexed": true,
          "internalType": "address",
          "name": "newOwner",
          "type": "address"
        }
      ],
      "name": "OwnershipTransferred",
      "type": "event"
    },
    {
      "anonymous": false,
      "inputs": [
        {
          "indexed": true,
          "internalType": "address",
          "name": "implementation",
          "type": "address"
        }
      ],
      "name": "Upgraded",
      "type": "event"
    },
    {
      "inputs": [],
      "name": "acceptOwnership",
      "outputs": [],
      "stateMutability": "nonpayable",
      "type": "function"
    },
    {
      "inputs": [
        {
          "internalType": "address",
          "name": "owner",
          "type": "address"
        },
        {
          "internalType": "uint64[]",
          "name": "operatorIds",
          "type": "uint64[]"
        },
        {
          "components": [
            {
              "internalType": "uint32",
              "name": "validatorCount",
              "type": "uint32"
            },
            {
              "internalType": "uint64",
              "name": "networkFeeIndex",
              "type": "uint64"
            },
            {
              "internalType": "uint64",
              "name": "index",
              "type": "uint64"
            },
            {
              "internalType": "bool",
              "name": "active",
              "type": "bool"
            },
            {
              "internalType": "uint256",
              "name": "balance",
              "type": "uint256"
            }
          ],
          "internalType": "struct ISSVNetworkCore.Cluster",
          "name": "cluster",
          "type": "tuple"
        }
      ],
      "name": "getBalance",
      "outputs": [
        {
          "internalType": "uint256",
          "name": "",
          "type": "uint256"
        }
      ],
      "stateMutability": "view",
      "type": "function"
    },
    {
      "inputs": [
        {
          "internalType": "address",
          "name": "owner",
          "type": "address"
        },
        {
          "internalType": "uint64[]",
          "name": "operatorIds",
          "type": "uint64[]"
        },
        {
          "components": [
            {
              "internalType": "uint32",
              "name": "validatorCount",
              "type": "uint32"
            },
            {
              "internalType": "uint64",
              "name": "networkFeeIndex",
              "type": "uint64"
            },
            {
              "internalType": "uint64",
              "name": "index",
              "type": "uint64"
            },
            {
              "internalType": "bool",
              "name": "active",
              "type": "bool"
            },
            {
              "internalType": "uint256",
              "name": "balance",
              "type": "uint256"
            }
          ],
          "internalType": "struct ISSVNetworkCore.Cluster",
          "name": "cluster",
          "type": "tuple"
        }
      ],
      "name": "getBurnRate",
      "outputs": [
        {
          "internalType": "uint256",
          "name": "",
          "type": "uint256"
        }
      ],
      "stateMutability": "view",
      "type": "function"
    },
    {
      "inputs": [],
      "name": "getLiquidationThresholdPeriod",
      "outputs": [
        {
          "internalType": "uint64",
          "name": "",
          "type": "uint64"
        }
      ],
      "stateMutability": "view",
      "type": "function"
    },
    {
      "inputs": [],
      "name": "getMinimumLiquidationCollateral",
      "outputs": [
        {
          "internalType": "uint256",
          "name": "",
          "type": "uint256"
        }
      ],
      "stateMutability": "view",
      "type": "function"
    },
    {
      "inputs": [],
      "name": "getNetworkEarnings",
      "outputs": [
        {
          "internalType": "uint256",
          "name": "",
          "type": "uint256"
        }
      ],
      "stateMutability": "view",
      "type": "function"
    },
    {
      "inputs": [],
      "name": "getNetworkFee",
      "outputs": [
        {
          "internalType": "uint256",
          "name": "",
          "type": "uint256"
        }
      ],
      "stateMutability": "view",
      "type": "function"
    },
    {
      "inputs": [
        {
          "internalType": "uint64",
          "name": "operatorId",
          "type": "uint64"
        }
      ],
      "name": "getOperatorById",
      "outputs": [
        {
          "internalType": "address",
          "name": "",
          "type": "address"
        },
        {
          "internalType": "uint256",
          "name": "",
          "type": "uint256"
        },
        {
          "internalType": "uint32",
          "name": "",
          "type": "uint32"
        },
        {
          "internalType": "address",
          "name": "",
          "type": "address"
        },
        {
          "internalType": "bool",
          "name": "",
          "type": "bool"
        },
        {
          "internalType": "bool",
          "name": "",
          "type": "bool"
        }
      ],
      "stateMutability": "view",
      "type": "function"
    },
    {
      "inputs": [
        {
          "internalType": "uint64",
          "name": "operatorId",
          "type": "uint64"
        }
      ],
      "name": "getOperatorDeclaredFee",
      "outputs": [
        {
          "internalType": "uint256",
          "name": "",
          "type": "uint256"
        },
        {
          "internalType": "uint64",
          "name": "",
          "type": "uint64"
        },
        {
          "internalType": "uint64",
          "name": "",
          "type": "uint64"
        }
      ],
      "stateMutability": "view",
      "type": "function"
    },
    {
      "inputs": [
        {
          "internalType": "uint64",
          "name": "id",
          "type": "uint64"
        }
      ],
      "name": "getOperatorEarnings",
      "outputs": [
        {
          "internalType": "uint256",
          "name": "",
          "type": "uint256"
        }
      ],
      "stateMutability": "view",
      "type": "function"
    },
    {
      "inputs": [
        {
          "internalType": "uint64",
          "name": "operatorId",
          "type": "uint64"
        }
      ],
      "name": "getOperatorFee",
      "outputs": [
        {
          "internalType": "uint256",
          "name": "",
          "type": "uint256"
        }
      ],
      "stateMutability": "view",
      "type": "function"
    },
    {
      "inputs": [],
      "name": "getOperatorFeeIncreaseLimit",
      "outputs": [
        {
          "internalType": "uint64",
          "name": "operatorMaxFeeIncrease",
          "type": "uint64"
        }
      ],
      "stateMutability": "view",
      "type": "function"
    },
    {
      "inputs": [],
      "name": "getOperatorFeePeriods",
      "outputs": [
        {
          "internalType": "uint64",
          "name": "declareOperatorFeePeriod",
          "type": "uint64"
        },
        {
          "internalType": "uint64",
          "name": "executeOperatorFeePeriod",
          "type": "uint64"
        }
      ],
      "stateMutability": "view",
      "type": "function"
    },
    {
      "inputs": [
        {
          "internalType": "address",
          "name": "owner",
          "type": "address"
        },
        {
          "internalType": "bytes",
          "name": "publicKey",
          "type": "bytes"
        }
      ],
      "name": "getValidator",
      "outputs": [
        {
          "internalType": "bool",
          "name": "active",
          "type": "bool"
        }
      ],
      "stateMutability": "view",
      "type": "function"
    },
    {
      "inputs": [],
      "name": "getValidatorsPerOperatorLimit",
      "outputs": [
        {
          "internalType": "uint32",
          "name": "",
          "type": "uint32"
        }
      ],
      "stateMutability": "view",
      "type": "function"
    },
    {
      "inputs": [],
      "name": "getVersion",
      "outputs": [
        {
          "internalType": "string",
          "name": "version",
          "type": "string"
        }
      ],
      "stateMutability": "view",
      "type": "function"
    },
    {
      "inputs": [
        {
          "internalType": "contract ISSVViews",
          "name": "ssvNetwork_",
          "type": "address"
        }
      ],
      "name": "initialize",
      "outputs": [],
      "stateMutability": "nonpayable",
      "type": "function"
    },
    {
      "inputs": [
        {
          "internalType": "address",
          "name": "owner",
          "type": "address"
        },
        {
          "internalType": "uint64[]",
          "name": "operatorIds",
          "type": "uint64[]"
        },
        {
          "components": [
            {
              "internalType": "uint32",
              "name": "validatorCount",
              "type": "uint32"
            },
            {
              "internalType": "uint64",
              "name": "networkFeeIndex",
              "type": "uint64"
            },
            {
              "internalType": "uint64",
              "name": "index",
              "type": "uint64"
            },
            {
              "internalType": "bool",
              "name": "active",
              "type": "bool"
            },
            {
              "internalType": "uint256",
              "name": "balance",
              "type": "uint256"
            }
          ],
          "internalType": "struct ISSVNetworkCore.Cluster",
          "name": "cluster",
          "type": "tuple"
        }
      ],
      "name": "isLiquidatable",
      "outputs": [
        {
          "internalType": "bool",
          "name": "",
          "type": "bool"
        }
      ],
      "stateMutability": "view",
      "type": "function"
    },
    {
      "inputs": [
        {
          "internalType": "address",
          "name": "owner",
          "type": "address"
        },
        {
          "internalType": "uint64[]",
          "name": "operatorIds",
          "type": "uint64[]"
        },
        {
          "components": [
            {
              "internalType": "uint32",
              "name": "validatorCount",
              "type": "uint32"
            },
            {
              "internalType": "uint64",
              "name": "networkFeeIndex",
              "type": "uint64"
            },
            {
              "internalType": "uint64",
              "name": "index",
              "type": "uint64"
            },
            {
              "internalType": "bool",
              "name": "active",
              "type": "bool"
            },
            {
              "internalType": "uint256",
              "name": "balance",
              "type": "uint256"
            }
          ],
          "internalType": "struct ISSVNetworkCore.Cluster",
          "name": "cluster",
          "type": "tuple"
        }
      ],
      "name": "isLiquidated",
      "outputs": [
        {
          "internalType": "bool",
          "name": "",
          "type": "bool"
        }
      ],
      "stateMutability": "view",
      "type": "function"
    },
    {
      "inputs": [],
      "name": "owner",
      "outputs": [
        {
          "internalType": "address",
          "name": "",
          "type": "address"
        }
      ],
      "stateMutability": "view",
      "type": "function"
    },
    {
      "inputs": [],
      "name": "pendingOwner",
      "outputs": [
        {
          "internalType": "address",
          "name": "",
          "type": "address"
        }
      ],
      "stateMutability": "view",
      "type": "function"
    },
    {
      "inputs": [],
      "name": "proxiableUUID",
      "outputs": [
        {
          "internalType": "bytes32",
          "name": "",
          "type": "bytes32"
        }
      ],
      "stateMutability": "view",
      "type": "function"
    },
    {
      "inputs": [],
      "name": "renounceOwnership",
      "outputs": [],
      "stateMutability": "nonpayable",
      "type": "function"
    },
    {
      "inputs": [],
      "name": "ssvNetwork",
      "outputs": [
        {
          "internalType": "contract ISSVViews",
          "name": "",
          "type": "address"
        }
      ],
      "stateMutability": "view",
      "type": "function"
    },
    {
      "inputs": [
        {
          "internalType": "address",
          "name": "newOwner",
          "type": "address"
        }
      ],
      "name": "transferOwnership",
      "outputs": [],
      "stateMutability": "nonpayable",
      "type": "function"
    },
    {
      "inputs": [
        {
          "internalType": "address",
          "name": "newImplementation",
          "type": "address"
        }
      ],
      "name": "upgradeTo",
      "outputs": [],
      "stateMutability": "nonpayable",
      "type": "function"
    },
    {
      "inputs": [
        {
          "internalType": "address",
          "name": "newImplementation",
          "type": "address"
        },
        {
          "internalType": "bytes",
          "name": "data",
          "type": "bytes"
        }
      ],
      "name": "upgradeToAndCall",
      "outputs": [],
      "stateMutability": "payable",
      "type": "function"
    }
  ],
  "bytecode": "0x60a06040523060805234801561001457600080fd5b5061001d610022565b6100e1565b600054610100900460ff161561008e5760405162461bcd60e51b815260206004820152602760248201527f496e697469616c697a61626c653a20636f6e747261637420697320696e697469604482015266616c697a696e6760c81b606482015260840160405180910390fd5b60005460ff908116146100df576000805460ff191660ff9081179091556040519081527f7f26b83ff96e1f2b6a682f133852f6798a09c465da95921460cefb38474024989060200160405180910390a15b565b60805161237762000127600039600081816107eb0152818161088601528181610a1c01528181610ab201528181610bad015281816111d7015261126d01526123776000f3fe6080604052600436106101ac5760003560e01c8063777915cb116100ec578063c4d66de81161008a578063e6d2834d11610064578063e6d2834d14610502578063eb8ecfa714610538578063f2fde38b14610558578063fc0438301461057857600080fd5b8063c4d66de8146104a4578063ca162e5e146104c4578063e30c3978146104e457600080fd5b80639040f7c3116100c65780639040f7c3146103e85780639ad3c745146103fd578063a694695b1461041d578063be3f058e1461043d57600080fd5b8063777915cb146103a057806379ba5097146103b55780638da5cb5b146103ca57600080fd5b80633e2ec160116101595780635ba3d62a116101335780635ba3d62a1461032857806368465f7d1461033d5780636d0db0e41461036b578063715018a61461038b57600080fd5b80633e2ec160146102d25780634f1ef286146102f257806352d1902d1461030557600080fd5b806314cb9d7b1161018a57806314cb9d7b1461025657806316cff008146102805780633659cfe6146102b057600080fd5b806303b3d436146101b15780630d8e6e2c146101fc57806310d048581461021e575b600080fd5b3480156101bd57600080fd5b506101d16101cc366004611c85565b61058d565b6040805193845267ffffffffffffffff92831660208501529116908201526060015b60405180910390f35b34801561020857600080fd5b5061021161062e565b6040516101f39190611cc6565b34801561022a57600080fd5b5060fb5461023e906001600160a01b031681565b6040516001600160a01b0390911681526020016101f3565b34801561026257600080fd5b5061026b6106be565b60405163ffffffff90911681526020016101f3565b34801561028c57600080fd5b506102a061029b366004611db7565b610745565b60405190151581526020016101f3565b3480156102bc57600080fd5b506102d06102cb366004611ed3565b6107e1565b005b3480156102de57600080fd5b506102a06102ed366004611ef0565b610983565b6102d0610300366004611f9d565b610a12565b34801561031157600080fd5b5061031a610ba0565b6040519081526020016101f3565b34801561033457600080fd5b5061031a610c65565b34801561034957600080fd5b50610352610cec565b60405167ffffffffffffffff90911681526020016101f3565b34801561037757600080fd5b5061031a610386366004611c85565b610d73565b34801561039757600080fd5b506102d0610e0a565b3480156103ac57600080fd5b5061031a610e1e565b3480156103c157600080fd5b506102d0610e81565b3480156103d657600080fd5b506097546001600160a01b031661023e565b3480156103f457600080fd5b50610352610f0c565b34801561040957600080fd5b5061031a610418366004611c85565b610f6f565b34801561042957600080fd5b506102a0610438366004611db7565b610fc3565b34801561044957600080fd5b5061045d610458366004611c85565b611013565b604080516001600160a01b039788168152602081019690965263ffffffff9094169385019390935293166060830152911515608082015290151560a082015260c0016101f3565b3480156104b057600080fd5b506102d06104bf366004611ed3565b6110c3565b3480156104d057600080fd5b5061031a6104df366004611db7565b6113eb565b3480156104f057600080fd5b5060c9546001600160a01b031661023e565b34801561050e57600080fd5b5061051761147c565b6040805167ffffffffffffffff9384168152929091166020830152016101f3565b34801561054457600080fd5b5061031a610553366004611db7565b61150b565b34801561056457600080fd5b506102d0610573366004611ed3565b61155b565b34801561058457600080fd5b5061031a6115e4565b60fb546040517f03b3d43600000000000000000000000000000000000000000000000000000000815267ffffffffffffffff83166004820152600091829182916001600160a01b0316906303b3d43690602401606060405180830381865afa1580156105fd573d6000803e3d6000fd5b505050506040513d601f19601f820116820180604052508101906106219190612030565b9250925092509193909250565b60fb54604080517f0d8e6e2c00000000000000000000000000000000000000000000000000000000815290516060926001600160a01b031691630d8e6e2c9160048083019260009291908290030181865afa158015610691573d6000803e3d6000fd5b505050506040513d6000823e601f3d908101601f191682016040526106b99190810190612073565b905090565b60fb54604080517f14cb9d7b00000000000000000000000000000000000000000000000000000000815290516000926001600160a01b0316916314cb9d7b9160048083019260209291908290030181865afa158015610721573d6000803e3d6000fd5b505050506040513d601f19601f820116820180604052508101906106b991906120ea565b60fb546040517f16cff0080000000000000000000000000000000000000000000000000000000081526000916001600160a01b0316906316cff00890610795908890889088908890600401612107565b602060405180830381865afa1580156107b2573d6000803e3d6000fd5b505050506040513d601f19601f820116820180604052508101906107d691906121b5565b90505b949350505050565b6001600160a01b037f00000000000000000000000000000000000000000000000000000000000000001630036108845760405162461bcd60e51b815260206004820152602c60248201527f46756e6374696f6e206d7573742062652063616c6c6564207468726f7567682060448201527f64656c656761746563616c6c000000000000000000000000000000000000000060648201526084015b60405180910390fd5b7f00000000000000000000000000000000000000000000000000000000000000006001600160a01b03166108df7f360894a13ba1a3210667c828492db98dca3e2076cc3735a920a3ca505d382bbc546001600160a01b031690565b6001600160a01b03161461095b5760405162461bcd60e51b815260206004820152602c60248201527f46756e6374696f6e206d7573742062652063616c6c6564207468726f7567682060448201527f6163746976652070726f78790000000000000000000000000000000000000000606482015260840161087b565b61096481611647565b604080516000808252602082019092526109809183919061164f565b50565b60fb546040517f3e2ec1600000000000000000000000000000000000000000000000000000000081526000916001600160a01b031690633e2ec160906109d1908790879087906004016121d2565b602060405180830381865afa1580156109ee573d6000803e3d6000fd5b505050506040513d601f19601f820116820180604052508101906107d991906121b5565b6001600160a01b037f0000000000000000000000000000000000000000000000000000000000000000163003610ab05760405162461bcd60e51b815260206004820152602c60248201527f46756e6374696f6e206d7573742062652063616c6c6564207468726f7567682060448201527f64656c656761746563616c6c0000000000000000000000000000000000000000606482015260840161087b565b7f00000000000000000000000000000000000000000000000000000000000000006001600160a01b0316610b0b7f360894a13ba1a3210667c828492db98dca3e2076cc3735a920a3ca505d382bbc546001600160a01b031690565b6001600160a01b031614610b875760405162461bcd60e51b815260206004820152602c60248201527f46756e6374696f6e206d7573742062652063616c6c6564207468726f7567682060448201527f6163746976652070726f78790000000000000000000000000000000000000000606482015260840161087b565b610b9082611647565b610b9c8282600161164f565b5050565b6000306001600160a01b037f00000000000000000000000000000000000000000000000000000000000000001614610c405760405162461bcd60e51b815260206004820152603860248201527f555550535570677261646561626c653a206d757374206e6f742062652063616c60448201527f6c6564207468726f7567682064656c656761746563616c6c0000000000000000606482015260840161087b565b507f360894a13ba1a3210667c828492db98dca3e2076cc3735a920a3ca505d382bbc90565b60fb54604080517f5ba3d62a00000000000000000000000000000000000000000000000000000000815290516000926001600160a01b031691635ba3d62a9160048083019260209291908290030181865afa158015610cc8573d6000803e3d6000fd5b505050506040513d601f19601f820116820180604052508101906106b99190612211565b60fb54604080517f68465f7d00000000000000000000000000000000000000000000000000000000815290516000926001600160a01b0316916368465f7d9160048083019260209291908290030181865afa158015610d4f573d6000803e3d6000fd5b505050506040513d601f19601f820116820180604052508101906106b9919061222a565b60fb546040517f6d0db0e400000000000000000000000000000000000000000000000000000000815267ffffffffffffffff831660048201526000916001600160a01b031690636d0db0e4906024015b602060405180830381865afa158015610de0573d6000803e3d6000fd5b505050506040513d601f19601f82011682018060405250810190610e049190612211565b92915050565b610e126117f4565b610e1c600061184e565b565b60fb54604080517f777915cb00000000000000000000000000000000000000000000000000000000815290516000926001600160a01b03169163777915cb9160048083019260209291908290030181865afa158015610cc8573d6000803e3d6000fd5b60c95433906001600160a01b03168114610f035760405162461bcd60e51b815260206004820152602960248201527f4f776e61626c6532537465703a2063616c6c6572206973206e6f74207468652060448201527f6e6577206f776e65720000000000000000000000000000000000000000000000606482015260840161087b565b6109808161184e565b60fb54604080517f9040f7c300000000000000000000000000000000000000000000000000000000815290516000926001600160a01b031691639040f7c39160048083019260209291908290030181865afa158015610d4f573d6000803e3d6000fd5b60fb546040517f9ad3c74500000000000000000000000000000000000000000000000000000000815267ffffffffffffffff831660048201526000916001600160a01b031690639ad3c74590602401610dc3565b60fb546040517fa694695b0000000000000000000000000000000000000000000000000000000081526000916001600160a01b03169063a694695b90610795908890889088908890600401612107565b60fb546040517fbe3f058e00000000000000000000000000000000000000000000000000000000815267ffffffffffffffff83166004820152600091829182918291829182916001600160a01b039091169063be3f058e9060240160c060405180830381865afa15801561108b573d6000803e3d6000fd5b505050506040513d601f19601f820116820180604052508101906110af9190612247565b949c939b5091995097509550909350915050565b600054610100900460ff16158080156110e35750600054600160ff909116105b806110fd5750303b1580156110fd575060005460ff166001145b61116f5760405162461bcd60e51b815260206004820152602e60248201527f496e697469616c697a61626c653a20636f6e747261637420697320616c72656160448201527f647920696e697469616c697a6564000000000000000000000000000000000000606482015260840161087b565b600080547fffffffffffffffffffffffffffffffffffffffffffffffffffffffffffffff0016600117905580156111cd57600080547fffffffffffffffffffffffffffffffffffffffffffffffffffffffffffff00ff166101001790555b6001600160a01b037f000000000000000000000000000000000000000000000000000000000000000016300361126b5760405162461bcd60e51b815260206004820152602c60248201527f46756e6374696f6e206d7573742062652063616c6c6564207468726f7567682060448201527f64656c656761746563616c6c0000000000000000000000000000000000000000606482015260840161087b565b7f00000000000000000000000000000000000000000000000000000000000000006001600160a01b03166112c67f360894a13ba1a3210667c828492db98dca3e2076cc3735a920a3ca505d382bbc546001600160a01b031690565b6001600160a01b0316146113425760405162461bcd60e51b815260206004820152602c60248201527f46756e6374696f6e206d7573742062652063616c6c6564207468726f7567682060448201527f6163746976652070726f78790000000000000000000000000000000000000000606482015260840161087b565b61134a61187f565b6113526118fc565b60fb80547fffffffffffffffffffffffff0000000000000000000000000000000000000000166001600160a01b0384161790558015610b9c57600080547fffffffffffffffffffffffffffffffffffffffffffffffffffffffffffff00ff169055604051600181527f7f26b83ff96e1f2b6a682f133852f6798a09c465da95921460cefb38474024989060200160405180910390a15050565b60fb546040517fca162e5e0000000000000000000000000000000000000000000000000000000081526000916001600160a01b03169063ca162e5e9061143b908890889088908890600401612107565b602060405180830381865afa158015611458573d6000803e3d6000fd5b505050506040513d601f19601f820116820180604052508101906107d69190612211565b60fb54604080517fe6d2834d000000000000000000000000000000000000000000000000000000008152815160009384936001600160a01b039091169263e6d2834d92600480830193928290030181865afa1580156114df573d6000803e3d6000fd5b505050506040513d601f19601f8201168201806040525081019061150391906122c4565b915091509091565b60fb546040517feb8ecfa70000000000000000000000000000000000000000000000000000000081526000916001600160a01b03169063eb8ecfa79061143b908890889088908890600401612107565b6115636117f4565b60c980546001600160a01b0383167fffffffffffffffffffffffff000000000000000000000000000000000000000090911681179091556115ac6097546001600160a01b031690565b6001600160a01b03167f38d16b8cac22d99fc7c124b9cd0de2d3fa1faef420bfe791d8c362d765e2270060405160405180910390a350565b60fb54604080517ffc04383000000000000000000000000000000000000000000000000000000000815290516000926001600160a01b03169163fc0438309160048083019260209291908290030181865afa158015610cc8573d6000803e3d6000fd5b6109806117f4565b7f4910fdfa16fed3260ed0e7147f7cc6da11a60208b5b9406d12a635614ffd91435460ff16156116875761168283611982565b505050565b826001600160a01b03166352d1902d6040518163ffffffff1660e01b8152600401602060405180830381865afa9250505080156116e1575060408051601f3d908101601f191682019092526116de91810190612211565b60015b6117535760405162461bcd60e51b815260206004820152602e60248201527f45524331393637557067726164653a206e657720696d706c656d656e7461746960448201527f6f6e206973206e6f742055555053000000000000000000000000000000000000606482015260840161087b565b7f360894a13ba1a3210667c828492db98dca3e2076cc3735a920a3ca505d382bbc81146117e85760405162461bcd60e51b815260206004820152602960248201527f45524331393637557067726164653a20756e737570706f727465642070726f7860448201527f6961626c65555549440000000000000000000000000000000000000000000000606482015260840161087b565b50611682838383611a58565b6097546001600160a01b03163314610e1c5760405162461bcd60e51b815260206004820181905260248201527f4f776e61626c653a2063616c6c6572206973206e6f7420746865206f776e6572604482015260640161087b565b60c980547fffffffffffffffffffffffff000000000000000000000000000000000000000016905561098081611a83565b600054610100900460ff16610e1c5760405162461bcd60e51b815260206004820152602b60248201527f496e697469616c697a61626c653a20636f6e7472616374206973206e6f74206960448201527f6e697469616c697a696e67000000000000000000000000000000000000000000606482015260840161087b565b600054610100900460ff166119795760405162461bcd60e51b815260206004820152602b60248201527f496e697469616c697a61626c653a20636f6e7472616374206973206e6f74206960448201527f6e697469616c697a696e67000000000000000000000000000000000000000000606482015260840161087b565b610e1c3361184e565b6001600160a01b0381163b6119ff5760405162461bcd60e51b815260206004820152602d60248201527f455243313936373a206e657720696d706c656d656e746174696f6e206973206e60448201527f6f74206120636f6e747261637400000000000000000000000000000000000000606482015260840161087b565b7f360894a13ba1a3210667c828492db98dca3e2076cc3735a920a3ca505d382bbc80547fffffffffffffffffffffffff0000000000000000000000000000000000000000166001600160a01b0392909216919091179055565b611a6183611aed565b600082511180611a6e5750805b1561168257611a7d8383611b2d565b50505050565b609780546001600160a01b038381167fffffffffffffffffffffffff0000000000000000000000000000000000000000831681179093556040519116919082907f8be0079c531659141344cd1fd0a4f28419497f9722a3daafe3b4186f6b6457e090600090a35050565b611af681611982565b6040516001600160a01b038216907fbc7cd75a20ee27fd9adebab32041f755214dbc6bffa90cc0225b39da2e5c2d3b90600090a250565b6060611b52838360405180606001604052806027815260200161231b60279139611b59565b9392505050565b6060600080856001600160a01b031685604051611b7691906122fe565b600060405180830381855af49150503d8060008114611bb1576040519150601f19603f3d011682016040523d82523d6000602084013e611bb6565b606091505b5091509150611bc786838387611bd1565b9695505050505050565b60608315611c40578251600003611c39576001600160a01b0385163b611c395760405162461bcd60e51b815260206004820152601d60248201527f416464726573733a2063616c6c20746f206e6f6e2d636f6e7472616374000000604482015260640161087b565b50816107d9565b6107d98383815115611c555781518083602001fd5b8060405162461bcd60e51b815260040161087b9190611cc6565b67ffffffffffffffff8116811461098057600080fd5b600060208284031215611c9757600080fd5b8135611b5281611c6f565b60005b83811015611cbd578181015183820152602001611ca5565b50506000910152565b6020815260008251806020840152611ce5816040850160208701611ca2565b601f01601f19169190910160400192915050565b6001600160a01b038116811461098057600080fd5b7f4e487b7100000000000000000000000000000000000000000000000000000000600052604160045260246000fd5b60405160a0810167ffffffffffffffff81118282101715611d6057611d60611d0e565b60405290565b604051601f8201601f1916810167ffffffffffffffff81118282101715611d8f57611d8f611d0e565b604052919050565b63ffffffff8116811461098057600080fd5b801515811461098057600080fd5b60008060008084860360e0811215611dce57600080fd5b8535611dd981611cf9565b9450602086013567ffffffffffffffff80821115611df657600080fd5b818801915088601f830112611e0a57600080fd5b813581811115611e1957600080fd5b8960208260051b8501011115611e2e57600080fd5b60208301965080955050505060a07fffffffffffffffffffffffffffffffffffffffffffffffffffffffffffffffc082011215611e6a57600080fd5b50611e73611d3d565b6040860135611e8181611d97565b81526060860135611e9181611c6f565b60208201526080860135611ea481611c6f565b604082015260a0860135611eb781611da9565b606082015260c095909501356080860152509194909350909190565b600060208284031215611ee557600080fd5b8135611b5281611cf9565b600080600060408486031215611f0557600080fd5b8335611f1081611cf9565b9250602084013567ffffffffffffffff80821115611f2d57600080fd5b818601915086601f830112611f4157600080fd5b813581811115611f5057600080fd5b876020828501011115611f6257600080fd5b6020830194508093505050509250925092565b600067ffffffffffffffff821115611f8f57611f8f611d0e565b50601f01601f191660200190565b60008060408385031215611fb057600080fd5b8235611fbb81611cf9565b9150602083013567ffffffffffffffff811115611fd757600080fd5b8301601f81018513611fe857600080fd5b8035611ffb611ff682611f75565b611d66565b81815286602083850101111561201057600080fd5b816020840160208301376000602083830101528093505050509250929050565b60008060006060848603121561204557600080fd5b83519250602084015161205781611c6f565b604085015190925061206881611c6f565b809150509250925092565b60006020828403121561208557600080fd5b815167ffffffffffffffff81111561209c57600080fd5b8201601f810184136120ad57600080fd5b80516120bb611ff682611f75565b8181528560208385010111156120d057600080fd5b6120e1826020830160208601611ca2565b95945050505050565b6000602082840312156120fc57600080fd5b8151611b5281611d97565b6001600160a01b038516815260e0602080830182905290820184905260009085906101008401835b8781101561215e57833561214281611c6f565b67ffffffffffffffff168252928201929082019060010161212f565b508093505063ffffffff85511660408501528085015191505067ffffffffffffffff808216606085015280604086015116608085015250506060830151151560a0830152608083015160c083015295945050505050565b6000602082840312156121c757600080fd5b8151611b5281611da9565b6001600160a01b038416815260406020820152816040820152818360608301376000818301606090810191909152601f909201601f1916010192915050565b60006020828403121561222357600080fd5b5051919050565b60006020828403121561223c57600080fd5b8151611b5281611c6f565b60008060008060008060c0878903121561226057600080fd5b865161226b81611cf9565b60208801516040890151919750955061228381611d97565b606088015190945061229481611cf9565b60808801519093506122a581611da9565b60a08801519092506122b681611da9565b809150509295509295509295565b600080604083850312156122d757600080fd5b82516122e281611c6f565b60208401519092506122f381611c6f565b809150509250929050565b60008251612310818460208701611ca2565b919091019291505056fe416464726573733a206c6f772d6c6576656c2064656c65676174652063616c6c206661696c6564a26469706673582212201991894bc673f2ae539fa606964e7e3ced02e64abec6a19c711e37ae1cccabe764736f6c63430008120033",
  "linkReferences": {},
  "deployedLinkReferences": {}
}