{
  "_format": "hh-sol-artifact-1",
  "contractName": "SSVNetwork",
  "sourceName": "contracts/SSVNetwork.sol",
  "abi": [
    {
      "inputs": [],
      "name": "ApprovalNotWithinTimeframe",
      "type": "error"
    },
    {
      "inputs": [],
      "name": "CallerNotOwner",
      "type": "error"
    },
    {
      "inputs": [],
      "name": "CallerNotWhitelisted",
      "type": "error"
    },
    {
      "inputs": [],
      "name": "ClusterAlreadyEnabled",
      "type": "error"
    },
    {
      "inputs": [],
      "name": "ClusterDoesNotExists",
      "type": "error"
    },
    {
      "inputs": [],
      "name": "ClusterIsLiquidated",
      "type": "error"
    },
    {
      "inputs": [],
      "name": "ClusterNotLiquidatable",
      "type": "error"
    },
    {
      "inputs": [],
      "name": "ExceedValidatorLimit",
      "type": "error"
    },
    {
      "inputs": [],
      "name": "FeeExceedsIncreaseLimit",
      "type": "error"
    },
    {
      "inputs": [],
      "name": "FeeIncreaseNotAllowed",
      "type": "error"
    },
    {
      "inputs": [],
      "name": "FeeTooLow",
      "type": "error"
    },
    {
      "inputs": [],
      "name": "IncorrectClusterState",
      "type": "error"
    },
    {
      "inputs": [],
      "name": "IncorrectValidatorState",
      "type": "error"
    },
    {
      "inputs": [],
      "name": "InsufficientBalance",
      "type": "error"
    },
    {
      "inputs": [],
      "name": "InvalidOperatorIdsLength",
      "type": "error"
    },
    {
      "inputs": [],
      "name": "InvalidPublicKeyLength",
      "type": "error"
    },
    {
      "inputs": [],
      "name": "MaxValueExceeded",
      "type": "error"
    },
    {
      "inputs": [],
      "name": "NewBlockPeriodIsBelowMinimum",
      "type": "error"
    },
    {
      "inputs": [],
      "name": "NoFeeDeclared",
      "type": "error"
    },
    {
      "inputs": [],
      "name": "NotAuthorized",
      "type": "error"
    },
    {
      "inputs": [],
      "name": "OperatorAlreadyExists",
      "type": "error"
    },
    {
      "inputs": [],
      "name": "OperatorDoesNotExist",
      "type": "error"
    },
    {
      "inputs": [],
      "name": "OperatorsListNotUnique",
      "type": "error"
    },
    {
      "inputs": [],
      "name": "SameFeeChangeNotAllowed",
      "type": "error"
    },
    {
      "inputs": [],
      "name": "TargetModuleDoesNotExist",
      "type": "error"
    },
    {
      "inputs": [],
      "name": "TokenTransferFailed",
      "type": "error"
    },
    {
      "inputs": [],
      "name": "UnsortedOperatorsList",
      "type": "error"
    },
    {
      "inputs": [],
      "name": "ValidatorAlreadyExists",
      "type": "error"
    },
    {
      "inputs": [],
      "name": "ValidatorDoesNotExist",
      "type": "error"
    },
    {
      "anonymous": false,
      "inputs": [
        {
          "indexed": false,
          "internalType": "address",
          "name": "previousAdmin",
          "type": "address"
        },
        {
          "indexed": false,
          "internalType": "address",
          "name": "newAdmin",
          "type": "address"
        }
      ],
      "name": "AdminChanged",
      "type": "event"
    },
    {
      "anonymous": false,
      "inputs": [
        {
          "indexed": true,
          "internalType": "address",
          "name": "beacon",
          "type": "address"
        }
      ],
      "name": "BeaconUpgraded",
      "type": "event"
    },
    {
      "anonymous": false,
      "inputs": [
        {
          "indexed": true,
          "internalType": "address",
          "name": "owner",
          "type": "address"
        },
        {
          "indexed": false,
          "internalType": "uint64[]",
          "name": "operatorIds",
          "type": "uint64[]"
        },
        {
          "indexed": false,
          "internalType": "uint256",
          "name": "value",
          "type": "uint256"
        },
        {
          "components": [
            {
              "internalType": "uint32",
              "name": "validatorCount",
              "type": "uint32"
            },
            {
              "internalType": "uint64",
              "name": "networkFeeIndex",
              "type": "uint64"
            },
            {
              "internalType": "uint64",
              "name": "index",
              "type": "uint64"
            },
            {
              "internalType": "bool",
              "name": "active",
              "type": "bool"
            },
            {
              "internalType": "uint256",
              "name": "balance",
              "type": "uint256"
            }
          ],
          "indexed": false,
          "internalType": "struct ISSVNetworkCore.Cluster",
          "name": "cluster",
          "type": "tuple"
        }
      ],
      "name": "ClusterDeposited",
      "type": "event"
    },
    {
      "anonymous": false,
      "inputs": [
        {
          "indexed": true,
          "internalType": "address",
          "name": "owner",
          "type": "address"
        },
        {
          "indexed": false,
          "internalType": "uint64[]",
          "name": "operatorIds",
          "type": "uint64[]"
        },
        {
          "components": [
            {
              "internalType": "uint32",
              "name": "validatorCount",
              "type": "uint32"
            },
            {
              "internalType": "uint64",
              "name": "networkFeeIndex",
              "type": "uint64"
            },
            {
              "internalType": "uint64",
              "name": "index",
              "type": "uint64"
            },
            {
              "internalType": "bool",
              "name": "active",
              "type": "bool"
            },
            {
              "internalType": "uint256",
              "name": "balance",
              "type": "uint256"
            }
          ],
          "indexed": false,
          "internalType": "struct ISSVNetworkCore.Cluster",
          "name": "cluster",
          "type": "tuple"
        }
      ],
      "name": "ClusterLiquidated",
      "type": "event"
    },
    {
      "anonymous": false,
      "inputs": [
        {
          "indexed": true,
          "internalType": "address",
          "name": "owner",
          "type": "address"
        },
        {
          "indexed": false,
          "internalType": "uint64[]",
          "name": "operatorIds",
          "type": "uint64[]"
        },
        {
          "components": [
            {
              "internalType": "uint32",
              "name": "validatorCount",
              "type": "uint32"
            },
            {
              "internalType": "uint64",
              "name": "networkFeeIndex",
              "type": "uint64"
            },
            {
              "internalType": "uint64",
              "name": "index",
              "type": "uint64"
            },
            {
              "internalType": "bool",
              "name": "active",
              "type": "bool"
            },
            {
              "internalType": "uint256",
              "name": "balance",
              "type": "uint256"
            }
          ],
          "indexed": false,
          "internalType": "struct ISSVNetworkCore.Cluster",
          "name": "cluster",
          "type": "tuple"
        }
      ],
      "name": "ClusterReactivated",
      "type": "event"
    },
    {
      "anonymous": false,
      "inputs": [
        {
          "indexed": true,
          "internalType": "address",
          "name": "owner",
          "type": "address"
        },
        {
          "indexed": false,
          "internalType": "uint64[]",
          "name": "operatorIds",
          "type": "uint64[]"
        },
        {
          "indexed": false,
          "internalType": "uint256",
          "name": "value",
          "type": "uint256"
        },
        {
          "components": [
            {
              "internalType": "uint32",
              "name": "validatorCount",
              "type": "uint32"
            },
            {
              "internalType": "uint64",
              "name": "networkFeeIndex",
              "type": "uint64"
            },
            {
              "internalType": "uint64",
              "name": "index",
              "type": "uint64"
            },
            {
              "internalType": "bool",
              "name": "active",
              "type": "bool"
            },
            {
              "internalType": "uint256",
              "name": "balance",
              "type": "uint256"
            }
          ],
          "indexed": false,
          "internalType": "struct ISSVNetworkCore.Cluster",
          "name": "cluster",
          "type": "tuple"
        }
      ],
      "name": "ClusterWithdrawn",
      "type": "event"
    },
    {
      "anonymous": false,
      "inputs": [
        {
          "indexed": false,
          "internalType": "uint64",
          "name": "value",
          "type": "uint64"
        }
      ],
      "name": "DeclareOperatorFeePeriodUpdated",
      "type": "event"
    },
    {
      "anonymous": false,
      "inputs": [
        {
          "indexed": false,
          "internalType": "uint64",
          "name": "value",
          "type": "uint64"
        }
      ],
      "name": "ExecuteOperatorFeePeriodUpdated",
      "type": "event"
    },
    {
      "anonymous": false,
      "inputs": [
        {
          "indexed": true,
          "internalType": "address",
          "name": "owner",
          "type": "address"
        },
        {
          "indexed": false,
          "internalType": "address",
          "name": "recipientAddress",
          "type": "address"
        }
      ],
      "name": "FeeRecipientAddressUpdated",
      "type": "event"
    },
    {
      "anonymous": false,
      "inputs": [
        {
          "indexed": false,
          "internalType": "uint8",
          "name": "version",
          "type": "uint8"
        }
      ],
      "name": "Initialized",
      "type": "event"
    },
    {
      "anonymous": false,
      "inputs": [
        {
          "indexed": false,
          "internalType": "uint64",
          "name": "value",
          "type": "uint64"
        }
      ],
      "name": "LiquidationThresholdPeriodUpdated",
      "type": "event"
    },
    {
      "anonymous": false,
      "inputs": [
        {
          "indexed": false,
          "internalType": "uint256",
          "name": "value",
          "type": "uint256"
        }
      ],
      "name": "MinimumLiquidationCollateralUpdated",
      "type": "event"
    },
    {
      "anonymous": false,
      "inputs": [
        {
          "indexed": false,
          "internalType": "uint256",
          "name": "value",
          "type": "uint256"
        },
        {
          "indexed": false,
          "internalType": "address",
          "name": "recipient",
          "type": "address"
        }
      ],
      "name": "NetworkEarningsWithdrawn",
      "type": "event"
    },
    {
      "anonymous": false,
      "inputs": [
        {
          "indexed": false,
          "internalType": "uint256",
          "name": "oldFee",
          "type": "uint256"
        },
        {
          "indexed": false,
          "internalType": "uint256",
          "name": "newFee",
          "type": "uint256"
        }
      ],
      "name": "NetworkFeeUpdated",
      "type": "event"
    },
    {
      "anonymous": false,
      "inputs": [
        {
          "indexed": true,
          "internalType": "uint64",
          "name": "operatorId",
          "type": "uint64"
        },
        {
          "indexed": true,
          "internalType": "address",
          "name": "owner",
          "type": "address"
        },
        {
          "indexed": false,
          "internalType": "bytes",
          "name": "publicKey",
          "type": "bytes"
        },
        {
          "indexed": false,
          "internalType": "uint256",
          "name": "fee",
          "type": "uint256"
        }
      ],
      "name": "OperatorAdded",
      "type": "event"
    },
    {
      "anonymous": false,
      "inputs": [
        {
          "indexed": true,
          "internalType": "address",
          "name": "owner",
          "type": "address"
        },
        {
          "indexed": true,
          "internalType": "uint64",
          "name": "operatorId",
          "type": "uint64"
        }
      ],
      "name": "OperatorFeeCancellationDeclared",
      "type": "event"
    },
    {
      "anonymous": false,
      "inputs": [
        {
          "indexed": true,
          "internalType": "address",
          "name": "owner",
          "type": "address"
        },
        {
          "indexed": true,
          "internalType": "uint64",
          "name": "operatorId",
          "type": "uint64"
        },
        {
          "indexed": false,
          "internalType": "uint256",
          "name": "blockNumber",
          "type": "uint256"
        },
        {
          "indexed": false,
          "internalType": "uint256",
          "name": "fee",
          "type": "uint256"
        }
      ],
      "name": "OperatorFeeDeclared",
      "type": "event"
    },
    {
      "anonymous": false,
      "inputs": [
        {
          "indexed": true,
          "internalType": "address",
          "name": "owner",
          "type": "address"
        },
        {
          "indexed": true,
          "internalType": "uint64",
          "name": "operatorId",
          "type": "uint64"
        },
        {
          "indexed": false,
          "internalType": "uint256",
          "name": "blockNumber",
          "type": "uint256"
        },
        {
          "indexed": false,
          "internalType": "uint256",
          "name": "fee",
          "type": "uint256"
        }
      ],
      "name": "OperatorFeeExecuted",
      "type": "event"
    },
    {
      "anonymous": false,
      "inputs": [
        {
          "indexed": false,
          "internalType": "uint64",
          "name": "value",
          "type": "uint64"
        }
      ],
      "name": "OperatorFeeIncreaseLimitUpdated",
      "type": "event"
    },
    {
      "anonymous": false,
      "inputs": [
        {
          "indexed": true,
          "internalType": "uint64",
          "name": "operatorId",
          "type": "uint64"
        }
      ],
      "name": "OperatorRemoved",
      "type": "event"
    },
    {
      "anonymous": false,
      "inputs": [
        {
          "indexed": true,
          "internalType": "uint64",
          "name": "operatorId",
          "type": "uint64"
        },
        {
          "indexed": false,
          "internalType": "address",
          "name": "whitelisted",
          "type": "address"
        }
      ],
      "name": "OperatorWhitelistUpdated",
      "type": "event"
    },
    {
      "anonymous": false,
      "inputs": [
        {
          "indexed": true,
          "internalType": "address",
          "name": "owner",
          "type": "address"
        },
        {
          "indexed": true,
          "internalType": "uint64",
          "name": "operatorId",
          "type": "uint64"
        },
        {
          "indexed": false,
          "internalType": "uint256",
          "name": "value",
          "type": "uint256"
        }
      ],
      "name": "OperatorWithdrawn",
      "type": "event"
    },
    {
      "anonymous": false,
      "inputs": [
        {
          "indexed": true,
          "internalType": "address",
          "name": "previousOwner",
          "type": "address"
        },
        {
          "indexed": true,
          "internalType": "address",
          "name": "newOwner",
          "type": "address"
        }
      ],
      "name": "OwnershipTransferStarted",
      "type": "event"
    },
    {
      "anonymous": false,
      "inputs": [
        {
          "indexed": true,
          "internalType": "address",
          "name": "previousOwner",
          "type": "address"
        },
        {
          "indexed": true,
          "internalType": "address",
          "name": "newOwner",
          "type": "address"
        }
      ],
      "name": "OwnershipTransferred",
      "type": "event"
    },
    {
      "anonymous": false,
      "inputs": [
        {
          "indexed": true,
          "internalType": "address",
          "name": "implementation",
          "type": "address"
        }
      ],
      "name": "Upgraded",
      "type": "event"
    },
    {
      "anonymous": false,
      "inputs": [
        {
          "indexed": true,
          "internalType": "address",
          "name": "owner",
          "type": "address"
        },
        {
          "indexed": false,
          "internalType": "uint64[]",
          "name": "operatorIds",
          "type": "uint64[]"
        },
        {
          "indexed": false,
          "internalType": "bytes",
          "name": "publicKey",
          "type": "bytes"
        },
        {
          "indexed": false,
          "internalType": "bytes",
          "name": "shares",
          "type": "bytes"
        },
        {
          "components": [
            {
              "internalType": "uint32",
              "name": "validatorCount",
              "type": "uint32"
            },
            {
              "internalType": "uint64",
              "name": "networkFeeIndex",
              "type": "uint64"
            },
            {
              "internalType": "uint64",
              "name": "index",
              "type": "uint64"
            },
            {
              "internalType": "bool",
              "name": "active",
              "type": "bool"
            },
            {
              "internalType": "uint256",
              "name": "balance",
              "type": "uint256"
            }
          ],
          "indexed": false,
          "internalType": "struct ISSVNetworkCore.Cluster",
          "name": "cluster",
          "type": "tuple"
        }
      ],
      "name": "ValidatorAdded",
      "type": "event"
    },
    {
      "anonymous": false,
      "inputs": [
        {
          "indexed": true,
          "internalType": "address",
          "name": "owner",
          "type": "address"
        },
        {
          "indexed": false,
          "internalType": "uint64[]",
          "name": "operatorIds",
          "type": "uint64[]"
        },
        {
          "indexed": false,
          "internalType": "bytes",
          "name": "publicKey",
          "type": "bytes"
        },
        {
          "components": [
            {
              "internalType": "uint32",
              "name": "validatorCount",
              "type": "uint32"
            },
            {
              "internalType": "uint64",
              "name": "networkFeeIndex",
              "type": "uint64"
            },
            {
              "internalType": "uint64",
              "name": "index",
              "type": "uint64"
            },
            {
              "internalType": "bool",
              "name": "active",
              "type": "bool"
            },
            {
              "internalType": "uint256",
              "name": "balance",
              "type": "uint256"
            }
          ],
          "indexed": false,
          "internalType": "struct ISSVNetworkCore.Cluster",
          "name": "cluster",
          "type": "tuple"
        }
      ],
      "name": "ValidatorRemoved",
      "type": "event"
    },
    {
      "stateMutability": "nonpayable",
      "type": "fallback"
    },
    {
      "inputs": [],
      "name": "acceptOwnership",
      "outputs": [],
      "stateMutability": "nonpayable",
      "type": "function"
    },
    {
      "inputs": [
        {
          "internalType": "uint64",
          "name": "operatorId",
          "type": "uint64"
        }
      ],
      "name": "cancelDeclaredOperatorFee",
      "outputs": [],
      "stateMutability": "nonpayable",
      "type": "function"
    },
    {
      "inputs": [
        {
          "internalType": "uint64",
          "name": "operatorId",
          "type": "uint64"
        },
        {
          "internalType": "uint256",
          "name": "fee",
          "type": "uint256"
        }
      ],
      "name": "declareOperatorFee",
      "outputs": [],
      "stateMutability": "nonpayable",
      "type": "function"
    },
    {
      "inputs": [
        {
          "internalType": "address",
          "name": "owner",
          "type": "address"
        },
        {
          "internalType": "uint64[]",
          "name": "operatorIds",
          "type": "uint64[]"
        },
        {
          "internalType": "uint256",
          "name": "amount",
          "type": "uint256"
        },
        {
          "components": [
            {
              "internalType": "uint32",
              "name": "validatorCount",
              "type": "uint32"
            },
            {
              "internalType": "uint64",
              "name": "networkFeeIndex",
              "type": "uint64"
            },
            {
              "internalType": "uint64",
              "name": "index",
              "type": "uint64"
            },
            {
              "internalType": "bool",
              "name": "active",
              "type": "bool"
            },
            {
              "internalType": "uint256",
              "name": "balance",
              "type": "uint256"
            }
          ],
          "internalType": "struct ISSVNetworkCore.Cluster",
          "name": "cluster",
          "type": "tuple"
        }
      ],
      "name": "deposit",
      "outputs": [],
      "stateMutability": "nonpayable",
      "type": "function"
    },
    {
      "inputs": [
        {
          "internalType": "uint64",
          "name": "operatorId",
          "type": "uint64"
        }
      ],
      "name": "executeOperatorFee",
      "outputs": [],
      "stateMutability": "nonpayable",
      "type": "function"
    },
    {
      "inputs": [
        {
          "internalType": "address",
          "name": "userAddress",
          "type": "address"
        }
      ],
      "name": "getRegisterAuth",
      "outputs": [
        {
          "internalType": "bool",
          "name": "authOperators",
          "type": "bool"
        },
        {
          "internalType": "bool",
          "name": "authValidators",
          "type": "bool"
        }
      ],
      "stateMutability": "view",
      "type": "function"
    },
    {
      "inputs": [
        {
          "internalType": "contract IERC20",
          "name": "token_",
          "type": "address"
        },
        {
          "internalType": "contract ISSVOperators",
          "name": "ssvOperators_",
          "type": "address"
        },
        {
          "internalType": "contract ISSVClusters",
          "name": "ssvClusters_",
          "type": "address"
        },
        {
          "internalType": "contract ISSVDAO",
          "name": "ssvDAO_",
          "type": "address"
        },
        {
          "internalType": "contract ISSVViews",
          "name": "ssvViews_",
          "type": "address"
        },
        {
          "internalType": "uint64",
          "name": "minimumBlocksBeforeLiquidation_",
          "type": "uint64"
        },
        {
          "internalType": "uint256",
          "name": "minimumLiquidationCollateral_",
          "type": "uint256"
        },
        {
          "internalType": "uint32",
          "name": "validatorsPerOperatorLimit_",
          "type": "uint32"
        },
        {
          "internalType": "uint64",
          "name": "declareOperatorFeePeriod_",
          "type": "uint64"
        },
        {
          "internalType": "uint64",
          "name": "executeOperatorFeePeriod_",
          "type": "uint64"
        },
        {
          "internalType": "uint64",
          "name": "operatorMaxFeeIncrease_",
          "type": "uint64"
        }
      ],
      "name": "initialize",
      "outputs": [],
      "stateMutability": "nonpayable",
      "type": "function"
    },
    {
      "inputs": [
        {
          "internalType": "address",
          "name": "owner",
          "type": "address"
        },
        {
          "internalType": "uint64[]",
          "name": "operatorIds",
          "type": "uint64[]"
        },
        {
          "components": [
            {
              "internalType": "uint32",
              "name": "validatorCount",
              "type": "uint32"
            },
            {
              "internalType": "uint64",
              "name": "networkFeeIndex",
              "type": "uint64"
            },
            {
              "internalType": "uint64",
              "name": "index",
              "type": "uint64"
            },
            {
              "internalType": "bool",
              "name": "active",
              "type": "bool"
            },
            {
              "internalType": "uint256",
              "name": "balance",
              "type": "uint256"
            }
          ],
          "internalType": "struct ISSVNetworkCore.Cluster",
          "name": "cluster",
          "type": "tuple"
        }
      ],
      "name": "liquidate",
      "outputs": [],
      "stateMutability": "nonpayable",
      "type": "function"
    },
    {
      "inputs": [],
      "name": "owner",
      "outputs": [
        {
          "internalType": "address",
          "name": "",
          "type": "address"
        }
      ],
      "stateMutability": "view",
      "type": "function"
    },
    {
      "inputs": [],
      "name": "pendingOwner",
      "outputs": [
        {
          "internalType": "address",
          "name": "",
          "type": "address"
        }
      ],
      "stateMutability": "view",
      "type": "function"
    },
    {
      "inputs": [],
      "name": "proxiableUUID",
      "outputs": [
        {
          "internalType": "bytes32",
          "name": "",
          "type": "bytes32"
        }
      ],
      "stateMutability": "view",
      "type": "function"
    },
    {
      "inputs": [
        {
          "internalType": "uint64[]",
          "name": "operatorIds",
          "type": "uint64[]"
        },
        {
          "internalType": "uint256",
          "name": "amount",
          "type": "uint256"
        },
        {
          "components": [
            {
              "internalType": "uint32",
              "name": "validatorCount",
              "type": "uint32"
            },
            {
              "internalType": "uint64",
              "name": "networkFeeIndex",
              "type": "uint64"
            },
            {
              "internalType": "uint64",
              "name": "index",
              "type": "uint64"
            },
            {
              "internalType": "bool",
              "name": "active",
              "type": "bool"
            },
            {
              "internalType": "uint256",
              "name": "balance",
              "type": "uint256"
            }
          ],
          "internalType": "struct ISSVNetworkCore.Cluster",
          "name": "cluster",
          "type": "tuple"
        }
      ],
      "name": "reactivate",
      "outputs": [],
      "stateMutability": "nonpayable",
      "type": "function"
    },
    {
      "inputs": [
        {
          "internalType": "uint64",
          "name": "operatorId",
          "type": "uint64"
        },
        {
          "internalType": "uint256",
          "name": "fee",
          "type": "uint256"
        }
      ],
      "name": "reduceOperatorFee",
      "outputs": [],
      "stateMutability": "nonpayable",
      "type": "function"
    },
    {
      "inputs": [
        {
          "internalType": "bytes",
          "name": "publicKey",
          "type": "bytes"
        },
        {
          "internalType": "uint256",
          "name": "fee",
          "type": "uint256"
        }
      ],
      "name": "registerOperator",
      "outputs": [
        {
          "internalType": "uint64",
          "name": "id",
          "type": "uint64"
        }
      ],
      "stateMutability": "nonpayable",
      "type": "function"
    },
    {
      "inputs": [
        {
          "internalType": "bytes",
          "name": "publicKey",
          "type": "bytes"
        },
        {
          "internalType": "uint64[]",
          "name": "operatorIds",
          "type": "uint64[]"
        },
        {
          "internalType": "bytes",
          "name": "sharesData",
          "type": "bytes"
        },
        {
          "internalType": "uint256",
          "name": "amount",
          "type": "uint256"
        },
        {
          "components": [
            {
              "internalType": "uint32",
              "name": "validatorCount",
              "type": "uint32"
            },
            {
              "internalType": "uint64",
              "name": "networkFeeIndex",
              "type": "uint64"
            },
            {
              "internalType": "uint64",
              "name": "index",
              "type": "uint64"
            },
            {
              "internalType": "bool",
              "name": "active",
              "type": "bool"
            },
            {
              "internalType": "uint256",
              "name": "balance",
              "type": "uint256"
            }
          ],
          "internalType": "struct ISSVNetworkCore.Cluster",
          "name": "cluster",
          "type": "tuple"
        }
      ],
      "name": "registerValidator",
      "outputs": [],
      "stateMutability": "nonpayable",
      "type": "function"
    },
    {
      "inputs": [
        {
          "internalType": "uint64",
          "name": "operatorId",
          "type": "uint64"
        }
      ],
      "name": "removeOperator",
      "outputs": [],
      "stateMutability": "nonpayable",
      "type": "function"
    },
    {
      "inputs": [
        {
          "internalType": "bytes",
          "name": "publicKey",
          "type": "bytes"
        },
        {
          "internalType": "uint64[]",
          "name": "operatorIds",
          "type": "uint64[]"
        },
        {
          "components": [
            {
              "internalType": "uint32",
              "name": "validatorCount",
              "type": "uint32"
            },
            {
              "internalType": "uint64",
              "name": "networkFeeIndex",
              "type": "uint64"
            },
            {
              "internalType": "uint64",
              "name": "index",
              "type": "uint64"
            },
            {
              "internalType": "bool",
              "name": "active",
              "type": "bool"
            },
            {
              "internalType": "uint256",
              "name": "balance",
              "type": "uint256"
            }
          ],
          "internalType": "struct ISSVNetworkCore.Cluster",
          "name": "cluster",
          "type": "tuple"
        }
      ],
      "name": "removeValidator",
      "outputs": [],
      "stateMutability": "nonpayable",
      "type": "function"
    },
    {
      "inputs": [],
      "name": "renounceOwnership",
      "outputs": [],
      "stateMutability": "nonpayable",
      "type": "function"
    },
    {
      "inputs": [
        {
          "internalType": "address",
          "name": "recipientAddress",
          "type": "address"
        }
      ],
      "name": "setFeeRecipientAddress",
      "outputs": [],
      "stateMutability": "nonpayable",
      "type": "function"
    },
    {
      "inputs": [
        {
          "internalType": "uint64",
          "name": "operatorId",
          "type": "uint64"
        },
        {
          "internalType": "address",
          "name": "whitelisted",
          "type": "address"
        }
      ],
      "name": "setOperatorWhitelist",
      "outputs": [],
      "stateMutability": "nonpayable",
      "type": "function"
    },
    {
      "inputs": [
        {
          "internalType": "address",
          "name": "userAddress",
          "type": "address"
        },
        {
          "internalType": "bool",
          "name": "authOperator",
          "type": "bool"
        },
        {
          "internalType": "bool",
          "name": "authValidator",
          "type": "bool"
        }
      ],
      "name": "setRegisterAuth",
      "outputs": [],
      "stateMutability": "nonpayable",
      "type": "function"
    },
    {
      "inputs": [
        {
          "internalType": "address",
          "name": "newOwner",
          "type": "address"
        }
      ],
      "name": "transferOwnership",
      "outputs": [],
      "stateMutability": "nonpayable",
      "type": "function"
    },
    {
      "inputs": [
        {
          "internalType": "uint64",
          "name": "timeInSeconds",
          "type": "uint64"
        }
      ],
      "name": "updateDeclareOperatorFeePeriod",
      "outputs": [],
      "stateMutability": "nonpayable",
      "type": "function"
    },
    {
      "inputs": [
        {
          "internalType": "uint64",
          "name": "timeInSeconds",
          "type": "uint64"
        }
      ],
      "name": "updateExecuteOperatorFeePeriod",
      "outputs": [],
      "stateMutability": "nonpayable",
      "type": "function"
    },
    {
      "inputs": [
        {
          "internalType": "uint64",
          "name": "blocks",
          "type": "uint64"
        }
      ],
      "name": "updateLiquidationThresholdPeriod",
      "outputs": [],
      "stateMutability": "nonpayable",
      "type": "function"
    },
    {
      "inputs": [
        {
          "internalType": "uint256",
          "name": "amount",
          "type": "uint256"
        }
      ],
      "name": "updateMinimumLiquidationCollateral",
      "outputs": [],
      "stateMutability": "nonpayable",
      "type": "function"
    },
    {
      "inputs": [
        {
          "internalType": "enum SSVModules",
          "name": "moduleId",
          "type": "uint8"
        },
        {
          "internalType": "address",
          "name": "moduleAddress",
          "type": "address"
        }
      ],
      "name": "updateModule",
      "outputs": [],
      "stateMutability": "nonpayable",
      "type": "function"
    },
    {
      "inputs": [
        {
          "internalType": "uint256",
          "name": "fee",
          "type": "uint256"
        }
      ],
      "name": "updateNetworkFee",
      "outputs": [],
      "stateMutability": "nonpayable",
      "type": "function"
    },
    {
      "inputs": [
        {
          "internalType": "uint64",
          "name": "percentage",
          "type": "uint64"
        }
      ],
      "name": "updateOperatorFeeIncreaseLimit",
      "outputs": [],
      "stateMutability": "nonpayable",
      "type": "function"
    },
    {
      "inputs": [
        {
          "internalType": "address",
          "name": "newImplementation",
          "type": "address"
        }
      ],
      "name": "upgradeTo",
      "outputs": [],
      "stateMutability": "nonpayable",
      "type": "function"
    },
    {
      "inputs": [
        {
          "internalType": "address",
          "name": "newImplementation",
          "type": "address"
        },
        {
          "internalType": "bytes",
          "name": "data",
          "type": "bytes"
        }
      ],
      "name": "upgradeToAndCall",
      "outputs": [],
      "stateMutability": "payable",
      "type": "function"
    },
    {
      "inputs": [
        {
          "internalType": "uint64[]",
          "name": "operatorIds",
          "type": "uint64[]"
        },
        {
          "internalType": "uint256",
          "name": "amount",
          "type": "uint256"
        },
        {
          "components": [
            {
              "internalType": "uint32",
              "name": "validatorCount",
              "type": "uint32"
            },
            {
              "internalType": "uint64",
              "name": "networkFeeIndex",
              "type": "uint64"
            },
            {
              "internalType": "uint64",
              "name": "index",
              "type": "uint64"
            },
            {
              "internalType": "bool",
              "name": "active",
              "type": "bool"
            },
            {
              "internalType": "uint256",
              "name": "balance",
              "type": "uint256"
            }
          ],
          "internalType": "struct ISSVNetworkCore.Cluster",
          "name": "cluster",
          "type": "tuple"
        }
      ],
      "name": "withdraw",
      "outputs": [],
      "stateMutability": "nonpayable",
      "type": "function"
    },
    {
      "inputs": [
        {
          "internalType": "uint256",
          "name": "amount",
          "type": "uint256"
        }
      ],
      "name": "withdrawNetworkEarnings",
      "outputs": [],
      "stateMutability": "nonpayable",
      "type": "function"
    },
    {
      "inputs": [
        {
          "internalType": "uint64",
          "name": "operatorId",
          "type": "uint64"
        },
        {
          "internalType": "uint256",
          "name": "amount",
          "type": "uint256"
        }
      ],
      "name": "withdrawOperatorEarnings",
      "outputs": [],
      "stateMutability": "nonpayable",
      "type": "function"
    },
    {
      "inputs": [
        {
          "internalType": "uint64",
          "name": "operatorId",
          "type": "uint64"
        }
      ],
      "name": "withdrawOperatorEarnings",
      "outputs": [],
      "stateMutability": "nonpayable",
      "type": "function"
    }
  ],
  "bytecode": "0x60a06040523060805234801561001457600080fd5b506080516128fd61005a60003960008181610711015281816107ac0152818161099c01528181610a3201528181610b5d01528181610e530152610ee901526128fd6000f3fe6080604052600436106102345760003560e01c806379ba509711610138578063c8c876c6116100b0578063e30c39781161007f578063eb60802211610064578063eb60802214610335578063f2fde38b14610574578063ff212c5c1461059457610234565b8063e30c397814610529578063e3e324b01461055457610234565b8063c8c876c614610315578063c90a7eab146104ee578063d2231741146102f5578063dbcdc2cc1461050957610234565b8063b317c35f11610107578063bc26e7e5116100ec578063bc26e7e514610498578063bf0f2fb2146104b3578063c626c3c6146104ce57610234565b8063b317c35f146102d5578063b4c9c408146102f557610234565b806379ba50971461043757806379e3e4e4146103355780638932cee0146103155780638da5cb5b1461044c57610234565b80633659cfe6116101cb5780635fec6dd01161019a578063686e682c1161017f578063686e682c146103cb578063715018a6146103eb5780637398ca6c1461040057610234565b80635fec6dd0146103cb5780636512447d1461033557610234565b80633659cfe6146103505780633ed00469146103705780634f1ef2861461039057806352d1902d146103a357610234565b806323d68a6d1161020757806323d68a6d146103155780632e168e0e1461031557806335f63767146102d55780633631983f1461033557610234565b806306e8fb9c1461029557806312b3fc19146102b5578063190d82e4146102d55780631f1f9fd5146102f5575b34801561024057600080fd5b5061029361024c6105cd565b6003908101906000905b600381111561026757610267611f07565b815260208101919091526040016000205473ffffffffffffffffffffffffffffffffffffffff16610601565b005b3480156102a157600080fd5b506102936102b03660046120c8565b61062a565b3480156102c157600080fd5b506102936102d0366004612227565b6106a1565b3480156102e157600080fd5b506102936102f03660046122a9565b6106b3565b34801561030157600080fd5b506102936103103660046122d3565b6106cd565b34801561032157600080fd5b506102936103303660046122ec565b6106ef565b34801561034157600080fd5b506102936103103660046122ec565b34801561035c57600080fd5b5061029361036b366004612329565b6106fa565b34801561037c57600080fd5b5061029361038b366004612346565b6108cd565b61029361039e36600461238b565b610985565b3480156103af57600080fd5b506103b8610b43565b6040519081526020015b60405180910390f35b3480156103d757600080fd5b506102936103e6366004612451565b610c15565b3480156103f757600080fd5b50610293610c26565b34801561040c57600080fd5b5061042061041b366004612329565b610c3a565b6040805192151583529015156020830152016103c2565b34801561044357600080fd5b50610293610c9a565b34801561045857600080fd5b5060975473ffffffffffffffffffffffffffffffffffffffff165b60405173ffffffffffffffffffffffffffffffffffffffff90911681526020016103c2565b3480156104a457600080fd5b506102936102d03660046124af565b3480156104bf57600080fd5b506102936103e6366004612515565b3480156104da57600080fd5b506102936104e9366004612572565b610d32565b3480156104fa57600080fd5b506102936102f0366004612641565b34801561051557600080fd5b50610293610524366004612329565b611079565b34801561053557600080fd5b5060c95473ffffffffffffffffffffffffffffffffffffffff16610473565b34801561056057600080fd5b5061029361056f366004612678565b6110c7565b34801561058057600080fd5b5061029361058f366004612329565b6110d9565b3480156105a057600080fd5b506105b46105af36600461269a565b611189565b60405167ffffffffffffffff90911681526020016103c2565b6000806105fb60017fd56c4f4aab8ca22f9fde432777379f436593c6027698a6995e2daea890bed105612715565b92915050565b3660008037600080366000845af43d6000803e808015610620573d6000f35b3d6000fd5b505050565b6106326111ef565b3360009081526020919091526040902054610100900460ff16610681576040517fea8e4eb500000000000000000000000000000000000000000000000000000000815260040160405180910390fd5b61069861068c6105cd565b60030160006001610256565b50505050505050565b6106ac61068c6105cd565b5050505050565b6106c96106be6105cd565b600301600080610256565b5050565b6106d561121d565b6106ec6106e06105cd565b60030160006002610256565b50565b6106ec6106be6105cd565b73ffffffffffffffffffffffffffffffffffffffff7f00000000000000000000000000000000000000000000000000000000000000001630036107aa5760405162461bcd60e51b815260206004820152602c60248201527f46756e6374696f6e206d7573742062652063616c6c6564207468726f7567682060448201527f64656c656761746563616c6c000000000000000000000000000000000000000060648201526084015b60405180910390fd5b7f000000000000000000000000000000000000000000000000000000000000000073ffffffffffffffffffffffffffffffffffffffff1661081f7f360894a13ba1a3210667c828492db98dca3e2076cc3735a920a3ca505d382bbc5473ffffffffffffffffffffffffffffffffffffffff1690565b73ffffffffffffffffffffffffffffffffffffffff16146108a85760405162461bcd60e51b815260206004820152602c60248201527f46756e6374696f6e206d7573742062652063616c6c6564207468726f7567682060448201527f6163746976652070726f7879000000000000000000000000000000000000000060648201526084016107a1565b6108b181611284565b604080516000808252602082019092526106ec9183919061128c565b6108d561121d565b604051806040016040528083151581526020018215158152506108f66111ef565b73ffffffffffffffffffffffffffffffffffffffff9490941660009081526020948552604090208151815492909501517fffffffffffffffffffffffffffffffffffffffffffffffffffffffffffff00009092169415157fffffffffffffffffffffffffffffffffffffffffffffffffffffffffffff00ff169490941761010091151591909102179092555050565b73ffffffffffffffffffffffffffffffffffffffff7f0000000000000000000000000000000000000000000000000000000000000000163003610a305760405162461bcd60e51b815260206004820152602c60248201527f46756e6374696f6e206d7573742062652063616c6c6564207468726f7567682060448201527f64656c656761746563616c6c000000000000000000000000000000000000000060648201526084016107a1565b7f000000000000000000000000000000000000000000000000000000000000000073ffffffffffffffffffffffffffffffffffffffff16610aa57f360894a13ba1a3210667c828492db98dca3e2076cc3735a920a3ca505d382bbc5473ffffffffffffffffffffffffffffffffffffffff1690565b73ffffffffffffffffffffffffffffffffffffffff1614610b2e5760405162461bcd60e51b815260206004820152602c60248201527f46756e6374696f6e206d7573742062652063616c6c6564207468726f7567682060448201527f6163746976652070726f7879000000000000000000000000000000000000000060648201526084016107a1565b610b3782611284565b6106c98282600161128c565b60003073ffffffffffffffffffffffffffffffffffffffff7f00000000000000000000000000000000000000000000000000000000000000001614610bf05760405162461bcd60e51b815260206004820152603860248201527f555550535570677261646561626c653a206d757374206e6f742062652063616c60448201527f6c6564207468726f7567682064656c656761746563616c6c000000000000000060648201526084016107a1565b507f360894a13ba1a3210667c828492db98dca3e2076cc3735a920a3ca505d382bbc90565b610c2061068c6105cd565b50505050565b610c2e61121d565b610c386000611457565b565b6000806000610c476111ef565b73ffffffffffffffffffffffffffffffffffffffff9094166000908152602094855260409081902081518083019092525460ff808216151580845261010090920416151591909501819052939492505050565b60c954339073ffffffffffffffffffffffffffffffffffffffff168114610d295760405162461bcd60e51b815260206004820152602960248201527f4f776e61626c6532537465703a2063616c6c6572206973206e6f74207468652060448201527f6e6577206f776e6572000000000000000000000000000000000000000000000060648201526084016107a1565b6106ec81611457565b600054610100900460ff1615808015610d525750600054600160ff909116105b80610d6c5750303b158015610d6c575060005460ff166001145b610dde5760405162461bcd60e51b815260206004820152602e60248201527f496e697469616c697a61626c653a20636f6e747261637420697320616c72656160448201527f647920696e697469616c697a656400000000000000000000000000000000000060648201526084016107a1565b600080547fffffffffffffffffffffffffffffffffffffffffffffffffffffffffffffff001660011790558015610e3c57600080547fffffffffffffffffffffffffffffffffffffffffffffffffffffffffffff00ff166101001790555b73ffffffffffffffffffffffffffffffffffffffff7f0000000000000000000000000000000000000000000000000000000000000000163003610ee75760405162461bcd60e51b815260206004820152602c60248201527f46756e6374696f6e206d7573742062652063616c6c6564207468726f7567682060448201527f64656c656761746563616c6c000000000000000000000000000000000000000060648201526084016107a1565b7f000000000000000000000000000000000000000000000000000000000000000073ffffffffffffffffffffffffffffffffffffffff16610f5c7f360894a13ba1a3210667c828492db98dca3e2076cc3735a920a3ca505d382bbc5473ffffffffffffffffffffffffffffffffffffffff1690565b73ffffffffffffffffffffffffffffffffffffffff1614610fe55760405162461bcd60e51b815260206004820152602c60248201527f46756e6374696f6e206d7573742062652063616c6c6564207468726f7567682060448201527f6163746976652070726f7879000000000000000000000000000000000000000060648201526084016107a1565b610fed611488565b610ff5611505565b6110088c8c8c8c8c8c8c8c8c8c8c61158b565b801561106b57600080547fffffffffffffffffffffffffffffffffffffffffffffffffffffffffffff00ff169055604051600181527f7f26b83ff96e1f2b6a682f133852f6798a09c465da95921460cefb38474024989060200160405180910390a15b505050505050505050505050565b60405173ffffffffffffffffffffffffffffffffffffffff8216815233907f259235c230d57def1521657e7c7951d3b385e76193378bc87ef6b56bc2ec35489060200160405180910390a250565b6110cf61121d565b6106c9828261199b565b6110e161121d565b60c9805473ffffffffffffffffffffffffffffffffffffffff83167fffffffffffffffffffffffff0000000000000000000000000000000000000000909116811790915561114460975473ffffffffffffffffffffffffffffffffffffffff1690565b73ffffffffffffffffffffffffffffffffffffffff167f38d16b8cac22d99fc7c124b9cd0de2d3fa1faef420bfe791d8c362d765e2270060405160405180910390a350565b60006111936111ef565b336000908152602091909152604090205460ff166111dd576040517fea8e4eb500000000000000000000000000000000000000000000000000000000815260040160405180910390fd5b6111e86106be6105cd565b9392505050565b6000806105fb60017f196806efe090e1bda0d29c02ba14a5bb8bb3b27efb6435fb21c1deec930cb239612715565b60975473ffffffffffffffffffffffffffffffffffffffff163314610c385760405162461bcd60e51b815260206004820181905260248201527f4f776e61626c653a2063616c6c6572206973206e6f7420746865206f776e657260448201526064016107a1565b6106ec61121d565b7f4910fdfa16fed3260ed0e7147f7cc6da11a60208b5b9406d12a635614ffd91435460ff16156112bf5761062583611a94565b8273ffffffffffffffffffffffffffffffffffffffff166352d1902d6040518163ffffffff1660e01b8152600401602060405180830381865afa925050508015611344575060408051601f3d9081017fffffffffffffffffffffffffffffffffffffffffffffffffffffffffffffffe016820190925261134191810190612728565b60015b6113b65760405162461bcd60e51b815260206004820152602e60248201527f45524331393637557067726164653a206e657720696d706c656d656e7461746960448201527f6f6e206973206e6f74205555505300000000000000000000000000000000000060648201526084016107a1565b7f360894a13ba1a3210667c828492db98dca3e2076cc3735a920a3ca505d382bbc811461144b5760405162461bcd60e51b815260206004820152602960248201527f45524331393637557067726164653a20756e737570706f727465642070726f7860448201527f6961626c6555554944000000000000000000000000000000000000000000000060648201526084016107a1565b50610625838383611b84565b60c980547fffffffffffffffffffffffff00000000000000000000000000000000000000001690556106ec81611ba9565b600054610100900460ff16610c385760405162461bcd60e51b815260206004820152602b60248201527f496e697469616c697a61626c653a20636f6e7472616374206973206e6f74206960448201527f6e697469616c697a696e6700000000000000000000000000000000000000000060648201526084016107a1565b600054610100900460ff166115825760405162461bcd60e51b815260206004820152602b60248201527f496e697469616c697a61626c653a20636f6e7472616374206973206e6f74206960448201527f6e697469616c697a696e6700000000000000000000000000000000000000000060648201526084016107a1565b610c3833611457565b600054610100900460ff166116085760405162461bcd60e51b815260206004820152602b60248201527f496e697469616c697a61626c653a20636f6e7472616374206973206e6f74206960448201527f6e697469616c697a696e6700000000000000000000000000000000000000000060648201526084016107a1565b60006116126105cd565b9050600061161e611c20565b90508c8260070160006101000a81548173ffffffffffffffffffffffffffffffffffffffff021916908373ffffffffffffffffffffffffffffffffffffffff1602179055508b82600301600080600381111561167c5761167c611f07565b600381111561168d5761168d611f07565b815260200190815260200160002060006101000a81548173ffffffffffffffffffffffffffffffffffffffff021916908373ffffffffffffffffffffffffffffffffffffffff1602179055508a826003016000600160038111156116f3576116f3611f07565b600381111561170457611704611f07565b815260200190815260200160002060006101000a81548173ffffffffffffffffffffffffffffffffffffffff021916908373ffffffffffffffffffffffffffffffffffffffff160217905550898260030160006002600381111561176a5761176a611f07565b600381111561177b5761177b611f07565b815260200190815260200160002060006101000a81548173ffffffffffffffffffffffffffffffffffffffff021916908373ffffffffffffffffffffffffffffffffffffffff160217905550888260030160006003808111156117e0576117e0611f07565b60038111156117f1576117f1611f07565b8152602081019190915260400160002080547fffffffffffffffffffffffff00000000000000000000000000000000000000001673ffffffffffffffffffffffffffffffffffffffff929092169190911790556001810180547fffffffffffffffffffffffffffffffff0000000000000000ffffffffffffffff166801000000000000000067ffffffffffffffff8b160217905561188e87611c4e565b600182018054835463ffffffff9099166c01000000000000000000000000027fffffffffffffffffffffffffffffffff00000000ffffffffffffffffffffffff90991698909817835567ffffffffffffffff96871678010000000000000000000000000000000000000000000000000277ffffffffffffffffffffffffffffffffffffffffffffffff92881670010000000000000000000000000000000002929092166fffffffffffffffffffffffffffffffff9098169790971717909555506002909301805493831668010000000000000000027fffffffffffffffffffffffffffffffff00000000000000000000000000000000909416919092161791909117905550505050505050565b6119a481611ccc565b6119da576040517f8f9195fb00000000000000000000000000000000000000000000000000000000815260040160405180910390fd5b806119e36105cd565b60030160008460038111156119fa576119fa611f07565b6003811115611a0b57611a0b611f07565b815260200190815260200160002060006101000a81548173ffffffffffffffffffffffffffffffffffffffff021916908373ffffffffffffffffffffffffffffffffffffffff1602179055507ffdf54bf052398eb41c923eb1bd596351c5e72b99959d1ca529a7f13c0a2503d78282604051611a88929190612741565b60405180910390a15050565b73ffffffffffffffffffffffffffffffffffffffff81163b611b1e5760405162461bcd60e51b815260206004820152602d60248201527f455243313936373a206e657720696d706c656d656e746174696f6e206973206e60448201527f6f74206120636f6e74726163740000000000000000000000000000000000000060648201526084016107a1565b7f360894a13ba1a3210667c828492db98dca3e2076cc3735a920a3ca505d382bbc80547fffffffffffffffffffffffff00000000000000000000000000000000000000001673ffffffffffffffffffffffffffffffffffffffff92909216919091179055565b611b8d83611cf8565b600082511180611b9a5750805b1561062557610c208383611d45565b6097805473ffffffffffffffffffffffffffffffffffffffff8381167fffffffffffffffffffffffff0000000000000000000000000000000000000000831681179093556040519116919082907f8be0079c531659141344cd1fd0a4f28419497f9722a3daafe3b4186f6b6457e090600090a35050565b6000806105fb60017f0f1d85405047bdb6b0a60e27531f52a1f7a948613527b9b83a7552558207aa16612715565b6000611c6662989680680100000000000000006127a1565b821115611cb55760405162461bcd60e51b815260206004820152601260248201527f4d61782076616c7565206578636565646564000000000000000000000000000060448201526064016107a1565b62989680611cc283611d6a565b6105fb91906127e7565b600073ffffffffffffffffffffffffffffffffffffffff8216611cf157506000919050565b503b151590565b611d0181611a94565b60405173ffffffffffffffffffffffffffffffffffffffff8216907fbc7cd75a20ee27fd9adebab32041f755214dbc6bffa90cc0225b39da2e5c2d3b90600090a250565b60606111e883836040518060600160405280602781526020016128a160279139611dca565b6000611d7962989680836127fb565b15611dc65760405162461bcd60e51b815260206004820152601660248201527f4d617820707265636973696f6e2065786365656465640000000000000000000060448201526064016107a1565b5090565b60606000808573ffffffffffffffffffffffffffffffffffffffff1685604051611df49190612833565b600060405180830381855af49150503d8060008114611e2f576040519150601f19603f3d011682016040523d82523d6000602084013e611e34565b606091505b5091509150611e4586838387611e4f565b9695505050505050565b60608315611ecb578251600003611ec45773ffffffffffffffffffffffffffffffffffffffff85163b611ec45760405162461bcd60e51b815260206004820152601d60248201527f416464726573733a2063616c6c20746f206e6f6e2d636f6e747261637400000060448201526064016107a1565b5081611ed5565b611ed58383611edd565b949350505050565b815115611eed5781518083602001fd5b8060405162461bcd60e51b81526004016107a1919061284f565b7f4e487b7100000000000000000000000000000000000000000000000000000000600052602160045260246000fd5b60008083601f840112611f4857600080fd5b50813567ffffffffffffffff811115611f6057600080fd5b602083019150836020828501011115611f7857600080fd5b9250929050565b7f4e487b7100000000000000000000000000000000000000000000000000000000600052604160045260246000fd5b604051601f82017fffffffffffffffffffffffffffffffffffffffffffffffffffffffffffffffe016810167ffffffffffffffff81118282101715611ff557611ff5611f7f565b604052919050565b803567ffffffffffffffff8116811461201557600080fd5b919050565b803563ffffffff8116811461201557600080fd5b8035801515811461201557600080fd5b600060a0828403121561205057600080fd5b60405160a0810181811067ffffffffffffffff8211171561207357612073611f7f565b6040529050806120828361201a565b815261209060208401611ffd565b60208201526120a160408401611ffd565b60408201526120b26060840161202e565b6060820152608083013560808201525092915050565b6000806000806000806000610120888a0312156120e457600080fd5b873567ffffffffffffffff808211156120fc57600080fd5b6121088b838c01611f36565b909950975060209150898201358181111561212257600080fd5b8a01601f81018c1361213357600080fd5b80358281111561214557612145611f7f565b8060051b612154858201611fae565b918252828101850191858101908f84111561216e57600080fd5b938601935b838510156121935761218485611ffd565b82529386019390860190612173565b9a5050505060408b0135925050808211156121ad57600080fd5b506121ba8a828b01611f36565b909550935050606088013591506121d48960808a0161203e565b905092959891949750929550565b60008083601f8401126121f457600080fd5b50813567ffffffffffffffff81111561220c57600080fd5b6020830191508360208260051b8501011115611f7857600080fd5b600080600080600060e0868803121561223f57600080fd5b853567ffffffffffffffff8082111561225757600080fd5b61226389838a01611f36565b9097509550602088013591508082111561227c57600080fd5b50612289888289016121e2565b909450925061229d9050876040880161203e565b90509295509295909350565b600080604083850312156122bc57600080fd5b6122c583611ffd565b946020939093013593505050565b6000602082840312156122e557600080fd5b5035919050565b6000602082840312156122fe57600080fd5b6111e882611ffd565b73ffffffffffffffffffffffffffffffffffffffff811681146106ec57600080fd5b60006020828403121561233b57600080fd5b81356111e881612307565b60008060006060848603121561235b57600080fd5b833561236681612307565b92506123746020850161202e565b91506123826040850161202e565b90509250925092565b6000806040838503121561239e57600080fd5b82356123a981612307565b915060208381013567ffffffffffffffff808211156123c757600080fd5b818601915086601f8301126123db57600080fd5b8135818111156123ed576123ed611f7f565b61241d847fffffffffffffffffffffffffffffffffffffffffffffffffffffffffffffffe0601f84011601611fae565b9150808252878482850101111561243357600080fd5b80848401858401376000848284010152508093505050509250929050565b60008060008060e0858703121561246757600080fd5b843567ffffffffffffffff81111561247e57600080fd5b61248a878288016121e2565b909550935050602085013591506124a4866040870161203e565b905092959194509250565b600080600080600061010086880312156124c857600080fd5b85356124d381612307565b9450602086013567ffffffffffffffff8111156124ef57600080fd5b6124fb888289016121e2565b9095509350506040860135915061229d876060880161203e565b60008060008060e0858703121561252b57600080fd5b843561253681612307565b9350602085013567ffffffffffffffff81111561255257600080fd5b61255e878288016121e2565b90945092506124a49050866040870161203e565b60008060008060008060008060008060006101608c8e03121561259457600080fd5b8b3561259f81612307565b9a5060208c01356125af81612307565b995060408c01356125bf81612307565b985060608c01356125cf81612307565b975060808c01356125df81612307565b96506125ed60a08d01611ffd565b955060c08c0135945061260260e08d0161201a565b93506126116101008d01611ffd565b92506126206101208d01611ffd565b915061262f6101408d01611ffd565b90509295989b509295989b9093969950565b6000806040838503121561265457600080fd5b61265d83611ffd565b9150602083013561266d81612307565b809150509250929050565b6000806040838503121561268b57600080fd5b82356004811061265d57600080fd5b6000806000604084860312156126af57600080fd5b833567ffffffffffffffff8111156126c657600080fd5b6126d286828701611f36565b909790965060209590950135949350505050565b7f4e487b7100000000000000000000000000000000000000000000000000000000600052601160045260246000fd5b818103818111156105fb576105fb6126e6565b60006020828403121561273a57600080fd5b5051919050565b604081016004841061277c577f4e487b7100000000000000000000000000000000000000000000000000000000600052602160045260246000fd5b92815273ffffffffffffffffffffffffffffffffffffffff9190911660209091015290565b80820281158282048414176105fb576105fb6126e6565b7f4e487b7100000000000000000000000000000000000000000000000000000000600052601260045260246000fd5b6000826127f6576127f66127b8565b500490565b60008261280a5761280a6127b8565b500690565b60005b8381101561282a578181015183820152602001612812565b50506000910152565b6000825161284581846020870161280f565b9190910192915050565b602081526000825180602084015261286e81604085016020870161280f565b601f017fffffffffffffffffffffffffffffffffffffffffffffffffffffffffffffffe016919091016040019291505056fe416464726573733a206c6f772d6c6576656c2064656c65676174652063616c6c206661696c6564a2646970667358221220a3adeec86d7612857abe936f30ee92f98566421f6e6f6c2e2c2f3ade5f1dcda564736f6c63430008120033",
  "linkReferences": {},
  "deployedLinkReferences": {}
}