{
  "abi": [
    {
      "inputs": [
        {
          "internalType": "address",
          "name": "keyGenerator",
          "type": "address"
        },
        {
          "internalType": "address",
          "name": "depositAddress",
          "type": "address"
        },
        {
          "internalType": "address",
          "name": "withdrawal",
          "type": "address"
        },
        {
          "internalType": "address",
          "name": "ssv_contract",
          "type": "address"
        },
        {
          "internalType": "address",
          "name": "ssv_token",
          "type": "address"
        },
        {
          "internalType": "uint32[4]",
          "name": "ids",
          "type": "uint32[4]"
        }
      ],
      "stateMutability": "nonpayable",
      "type": "constructor"
    },
    {
      "inputs": [
        {
          "internalType": "uint256",
          "name": "valueSent",
          "type": "uint256"
        }
      ],
      "name": "StakingPool__CantStakeZeroAmount",
      "type": "error"
    },
    {
      "inputs": [
        {
          "internalType": "address",
          "name": "caller",
          "type": "address"
        },
        {
          "internalType": "address",
          "name": "whitelistedAddress",
          "type": "address"
        }
      ],
      "name": "StakingPool__OnlyWhitelistAddress",
      "type": "error"
    },
    {
      "anonymous": false,
      "inputs": [
        {
          "indexed": false,
          "internalType": "bytes",
          "name": "pubkey",
          "type": "bytes"
        },
        {
          "indexed": false,
          "internalType": "bytes",
          "name": "sharesPublicKeys",
          "type": "bytes"
        },
        {
          "indexed": false,
          "internalType": "uint256",
          "name": "amount",
          "type": "uint256"
        }
      ],
      "name": "KeySharesDeposited",
      "type": "event"
    },
    {
      "anonymous": false,
      "inputs": [
        {
          "indexed": false,
          "internalType": "uint32[4]",
          "name": "newOperators",
          "type": "uint32[4]"
        }
      ],
      "name": "OperatorIDsChanged",
      "type": "event"
    },
    {
      "anonymous": false,
      "inputs": [
        {
          "indexed": true,
          "internalType": "address",
          "name": "previousOwner",
          "type": "address"
        },
        {
          "indexed": true,
          "internalType": "address",
          "name": "newOwner",
          "type": "address"
        }
      ],
      "name": "OwnershipTransferred",
      "type": "event"
    },
    {
      "anonymous": false,
      "inputs": [
        {
          "indexed": false,
          "internalType": "bytes",
          "name": "pubkey",
          "type": "bytes"
        }
      ],
      "name": "PubKeyDeposited",
      "type": "event"
    },
    {
      "anonymous": false,
      "inputs": [
        {
          "indexed": false,
          "internalType": "uint256",
          "name": "newPrice",
          "type": "uint256"
        }
      ],
      "name": "SharePriceUpdated",
      "type": "event"
    },
    {
      "anonymous": false,
      "inputs": [
        {
          "indexed": false,
          "internalType": "address",
          "name": "user_address",
          "type": "address"
        },
        {
          "indexed": false,
          "internalType": "uint256",
          "name": "amount",
          "type": "uint256"
        }
      ],
      "name": "UserStaked",
      "type": "event"
    },
    {
      "inputs": [],
      "name": "SSV_CONTRACT_ADDR",
      "outputs": [
        {
          "internalType": "address",
          "name": "",
          "type": "address"
        }
      ],
      "stateMutability": "view",
      "type": "function"
    },
    {
      "inputs": [],
      "name": "SSV_TOKEN_ADDR",
      "outputs": [
        {
          "internalType": "address",
          "name": "",
          "type": "address"
        }
      ],
      "stateMutability": "view",
      "type": "function"
    },
    {
      "inputs": [],
      "name": "VALIDATOR_AMOUNT",
      "outputs": [
        {
          "internalType": "uint256",
          "name": "",
          "type": "uint256"
        }
      ],
      "stateMutability": "view",
      "type": "function"
    },
    {
      "inputs": [
        {
          "internalType": "uint256",
          "name": "",
          "type": "uint256"
        }
      ],
      "name": "Validators",
      "outputs": [
        {
          "internalType": "bytes",
          "name": "",
          "type": "bytes"
        }
      ],
      "stateMutability": "view",
      "type": "function"
    },
    {
      "inputs": [],
      "name": "WITHDRAWAL_ADDRESS",
      "outputs": [
        {
          "internalType": "address",
          "name": "",
          "type": "address"
        }
      ],
      "stateMutability": "view",
      "type": "function"
    },
    {
      "inputs": [],
      "name": "WhitelistKeyGenerator",
      "outputs": [
        {
          "internalType": "address",
          "name": "",
          "type": "address"
        }
      ],
      "stateMutability": "view",
      "type": "function"
    },
    {
      "inputs": [
        {
          "internalType": "bytes",
          "name": "_pubkey",
          "type": "bytes"
        },
        {
          "internalType": "uint64[]",
          "name": "_operatorIds",
          "type": "uint64[]"
        },
        {
          "internalType": "bytes",
          "name": "_shares",
          "type": "bytes"
        },
        {
          "internalType": "uint256",
          "name": "_amount",
          "type": "uint256"
        },
        {
          "components": [
            {
              "internalType": "uint32",
              "name": "validatorCount",
              "type": "uint32"
            },
            {
              "internalType": "uint64",
              "name": "networkFeeIndex",
              "type": "uint64"
            },
            {
              "internalType": "uint64",
              "name": "index",
              "type": "uint64"
            },
            {
              "internalType": "bool",
              "name": "active",
              "type": "bool"
            },
            {
              "internalType": "uint256",
              "name": "balance",
              "type": "uint256"
            }
          ],
          "internalType": "struct ISSVNetwork.Cluster",
          "name": "_cluster",
          "type": "tuple"
        }
      ],
      "name": "depositShares",
      "outputs": [],
      "stateMutability": "nonpayable",
      "type": "function"
    },
    {
      "inputs": [
        {
          "internalType": "bytes",
          "name": "_pubkey",
          "type": "bytes"
        },
        {
          "internalType": "bytes",
          "name": "_withdrawal_credentials",
          "type": "bytes"
        },
        {
          "internalType": "bytes",
          "name": "_signature",
          "type": "bytes"
        },
        {
          "internalType": "bytes32",
          "name": "_deposit_data_root",
          "type": "bytes32"
        }
      ],
      "name": "depositValidator",
      "outputs": [],
      "stateMutability": "nonpayable",
      "type": "function"
    },
    {
      "inputs": [],
      "name": "getBeaconRewards",
      "outputs": [
        {
          "internalType": "uint256",
          "name": "",
          "type": "uint256"
        }
      ],
      "stateMutability": "view",
      "type": "function"
    },
    {
      "inputs": [],
      "name": "getExecutionRewards",
      "outputs": [
        {
          "internalType": "uint256",
          "name": "",
          "type": "uint256"
        }
      ],
      "stateMutability": "view",
      "type": "function"
    },
    {
      "inputs": [],
      "name": "getOperators",
      "outputs": [
        {
          "internalType": "uint32[4]",
          "name": "",
          "type": "uint32[4]"
        }
      ],
      "stateMutability": "view",
      "type": "function"
    },
    {
      "inputs": [],
      "name": "getShareprice",
      "outputs": [
        {
          "internalType": "uint256",
          "name": "",
          "type": "uint256"
        }
      ],
      "stateMutability": "view",
      "type": "function"
    },
    {
      "inputs": [
        {
          "internalType": "address",
          "name": "_userAddress",
          "type": "address"
        }
      ],
      "name": "getUserStake",
      "outputs": [
        {
          "internalType": "uint256",
          "name": "",
          "type": "uint256"
        }
      ],
      "stateMutability": "view",
      "type": "function"
    },
    {
      "inputs": [],
      "name": "getValidators",
      "outputs": [
        {
          "internalType": "bytes[]",
          "name": "",
          "type": "bytes[]"
        }
      ],
      "stateMutability": "view",
      "type": "function"
    },
    {
      "inputs": [],
      "name": "owner",
      "outputs": [
        {
          "internalType": "address",
          "name": "",
          "type": "address"
        }
      ],
      "stateMutability": "view",
      "type": "function"
    },
    {
      "inputs": [],
      "name": "renounceOwnership",
      "outputs": [],
      "stateMutability": "nonpayable",
      "type": "function"
    },
    {
      "inputs": [],
      "name": "ssvETH",
      "outputs": [
        {
          "internalType": "contract SSVETH",
          "name": "",
          "type": "address"
        }
      ],
      "stateMutability": "view",
      "type": "function"
    },
    {
      "inputs": [],
      "name": "stake",
      "outputs": [],
      "stateMutability": "payable",
      "type": "function"
    },
    {
      "inputs": [
        {
          "internalType": "address",
          "name": "newOwner",
          "type": "address"
        }
      ],
      "name": "transferOwnership",
      "outputs": [],
      "stateMutability": "nonpayable",
      "type": "function"
    },
    {
      "inputs": [
        {
          "internalType": "uint256",
          "name": "_amount",
          "type": "uint256"
        }
      ],
      "name": "unStake",
      "outputs": [],
      "stateMutability": "nonpayable",
      "type": "function"
    },
    {
      "inputs": [
        {
          "internalType": "uint256",
          "name": "_newBeaconRewards",
          "type": "uint256"
        }
      ],
      "name": "updateBeaconRewards",
      "outputs": [],
      "stateMutability": "nonpayable",
      "type": "function"
    },
    {
      "inputs": [
        {
          "internalType": "uint32[4]",
          "name": "_newOperators",
          "type": "uint32[4]"
        }
      ],
      "name": "updateOperators",
      "outputs": [],
      "stateMutability": "nonpayable",
      "type": "function"
    },
    {
      "stateMutability": "payable",
      "type": "receive"
    }
  ],
  "bytecode": "60c06040526801bc16d674ec80000060a0523480156200001e57600080fd5b50604051620029403803806200294083398101604081905262000041916200026c565b6200004c336200010c565b60018055600380546001600160a01b038087166001600160a01b031992831617909255600280548984169216919091179055851660805260405160009062000094906200015c565b604051809103906000f080158015620000b1573d6000803e3d6000fd5b50600480546001600160a01b038084166001600160a01b0319928316178355600680548983169084161790556005805491881691909216179055909150620000fe9060079084906200016a565b50505050505050506200035a565b600080546001600160a01b038381166001600160a01b0319831681178455604051919092169283917f8be0079c531659141344cd1fd0a4f28419497f9722a3daafe3b4186f6b6457e09190a35050565b610e1a8062001b2683390190565b600183019183908215620001fb5791602002820160005b83821115620001c757835183826101000a81548163ffffffff021916908363ffffffff160217905550926020019260040160208160030104928301926001030262000181565b8015620001f95782816101000a81549063ffffffff0219169055600401602081600301049283019260010302620001c7565b505b50620002099291506200020d565b5090565b5b808211156200020957600081556001016200020e565b80516001600160a01b03811681146200023c57600080fd5b919050565b634e487b7160e01b600052604160045260246000fd5b805163ffffffff811681146200023c57600080fd5b60008060008060008061012080888a0312156200028857600080fd5b620002938862000224565b96506020620002a4818a0162000224565b9650620002b460408a0162000224565b9550620002c460608a0162000224565b9450620002d460808a0162000224565b93508960bf8a0112620002e657600080fd5b604051608081016001600160401b03811182821017156200030b576200030b62000241565b60405291890191808b8411156200032157600080fd5b60a08b015b8481101562000348576200033a8162000257565b825290830190830162000326565b50508093505050509295509295509295565b60805160a05161179f620003876000396000818161029d01526109c001526000610997015261179f6000f3fe6080604052600436106101395760003560e01c80638da5cb5b116100ab578063df8af7c21161006f578063df8af7c214610375578063e6ebe20c14610395578063ed97013b146103aa578063edca4c12146103ca578063f2fde38b146103ea578063f8d0c40b1461040a57600080fd5b80638da5cb5b146102bf578063b7ab4db5146102dd578063bbadc93a146102ff578063bf3a6c0a14610335578063cc9fbb761461035557600080fd5b80632601d3c7116100fd5780632601d3c71461020c57806327a099d81461022c5780633a4b66f11461024e5780635d3eea9114610256578063715018a6146102765780637b4bc9351461028b57600080fd5b8063060c8ad71461014e57806307d0e5401461017257806307dc739f146101aa5780630df8d1e8146101d75780631b7e5127146101ec57600080fd5b36610149576101473461042a565b005b600080fd5b34801561015a57600080fd5b506009545b6040519081526020015b60405180910390f35b34801561017e57600080fd5b50600554610192906001600160a01b031681565b6040516001600160a01b039091168152602001610169565b3480156101b657600080fd5b506101ca6101c5366004610f63565b610444565b6040516101699190610fc2565b3480156101e357600080fd5b50600a5461015f565b3480156101f857600080fd5b50610147610207366004610f63565b6104f0565b34801561021857600080fd5b50600354610192906001600160a01b031681565b34801561023857600080fd5b5061024161054f565b6040516101699190610fdc565b6101476105b5565b34801561026257600080fd5b50610147610271366004610f63565b610728565b34801561028257600080fd5b50610147610893565b34801561029757600080fd5b5061015f7f000000000000000000000000000000000000000000000000000000000000000081565b3480156102cb57600080fd5b506000546001600160a01b0316610192565b3480156102e957600080fd5b506102f26108a7565b6040516101699190611013565b34801561030b57600080fd5b5061015f61031a366004611075565b6001600160a01b03166000908152600b602052604090205490565b34801561034157600080fd5b506101476103503660046110e7565b610980565b34801561036157600080fd5b50600654610192906001600160a01b031681565b34801561038157600080fd5b50600454610192906001600160a01b031681565b3480156103a157600080fd5b5061015f610a6e565b3480156103b657600080fd5b506101476103c53660046111b9565b610ae1565b3480156103d657600080fd5b506101476103e53660046112f0565b610b31565b3480156103f657600080fd5b50610147610405366004611075565b610ce4565b34801561041657600080fd5b50600254610192906001600160a01b031681565b80600a600082825461043c91906113ec565b909155505050565b6008818154811061045457600080fd5b90600052602060002001600091509050805461046f906113ff565b80601f016020809104026020016040519081016040528092919081815260200182805461049b906113ff565b80156104e85780601f106104bd576101008083540402835291602001916104e8565b820191906000526020600020905b8154815290600101906020018083116104cb57829003601f168201915b505050505081565b6104f8610d5d565b600981905560085460009061050e906020611439565b60085461051c906020611439565b600a5460095461052c91906113ec565b61053691906113ec565b6105409190611450565b905061054b81610db7565b5050565b610557610e94565b60408051608081019182905290600790600490826000855b82829054906101000a900463ffffffff1663ffffffff168152602001906004019060208260030104928301926001038202915080841161056f5790505050505050905090565b600034116105dd57604051639ed431ad60e01b81523460048201526024015b60405180910390fd5b6004805460408051638726972960e01b81529051600093670de0b6b3a7640000936001600160a01b031692638726972992818301926020928290030181865afa15801561062e573d6000803e3d6000fd5b505050506040513d601f19601f820116820180604052508101906106529190611472565b61065c9034611439565b6106669190611450565b600480546040516340c10f1960e01b81523392810192909252602482018390529192506001600160a01b03909116906340c10f1990604401600060405180830381600087803b1580156106b857600080fd5b505af11580156106cc573d6000803e3d6000fd5b5050604080513381523460208201527f8c265adcfa641899d6632b86254dda7a76f27701f1d21a732621d51f2328c460935001905060405180910390a1336000908152600b60205260408120805434929061043c9084906113ec565b600480546040516323b872dd60e01b81523392810192909252306024830152604482018390526001600160a01b0316906323b872dd906064016020604051808303816000875af1158015610780573d6000803e3d6000fd5b505050506040513d601f19601f820116820180604052508101906107a4919061148b565b506000600460009054906101000a90046001600160a01b03166001600160a01b031663872697296040518163ffffffff1660e01b8152600401602060405180830381865afa1580156107fa573d6000803e3d6000fd5b505050506040513d601f19601f8201168201806040525081019061081e9190611472565b6108289083611450565b61083a90670de0b6b3a7640000611439565b604051909150339082156108fc029083906000818181858888f1935050505015801561086a573d6000803e3d6000fd5b50336000908152600b60205260408120805484929061088a9084906114a8565b90915550505050565b61089b610d5d565b6108a56000610e44565b565b60606008805480602002602001604051908101604052809291908181526020016000905b828210156109775783829060005260206000200180546108ea906113ff565b80601f0160208091040260200160405190810160405280929190818152602001828054610916906113ff565b80156109635780601f1061093857610100808354040283529160200191610963565b820191906000526020600020905b81548152906001019060200180831161094657829003601f168201915b5050505050815260200190600101906108cb565b50505050905090565b6040516304512a2360e31b81526001600160a01b037f000000000000000000000000000000000000000000000000000000000000000016906322895118907f0000000000000000000000000000000000000000000000000000000000000000906109fa908b908b908b908b908b908b908b906004016114e4565b6000604051808303818588803b158015610a1357600080fd5b505af1158015610a27573d6000803e3d6000fd5b50505050507f144679c9e19454710222d38e13b257573a15b6ca6a4d10a1254ebc2480cb68638787604051610a5d929190611535565b60405180910390a150505050505050565b6004805460408051638726972960e01b8152905160009384936001600160a01b031692638726972992818301926020928290030181865afa158015610ab7573d6000803e3d6000fd5b505050506040513d601f19601f82011682018060405250810190610adb9190611472565b92915050565b610ae9610d5d565b610af66007826004610eb2565b507fa31d33307023a78b2b477792a91efbed5ee91448638292c891e81233cb6108f881604051610b269190610fdc565b60405180910390a150565b6002546001600160a01b03163314610b71576002546040516301f5a31f60e71b81523360048201526001600160a01b0390911660248201526044016105d4565b60055460065460405163095ea7b360e01b81526001600160a01b0391821660048201526024810185905291169063095ea7b3906044016020604051808303816000875af1158015610bc6573d6000803e3d6000fd5b505050506040513d601f19601f82011682018060405250810190610bea919061148b565b506006546040516301ba3ee760e21b81526001600160a01b03909116906306e8fb9c90610c29908b908b908b908b908b908b908b908b90600401611551565b600060405180830381600087803b158015610c4357600080fd5b505af1158015610c57573d6000803e3d6000fd5b5050600880546001810182556000919091527ff3f7a9fe364faab93b216da50a3214154f22a0a2b415b23a84c8169e8b636ee3019150610c9a9050888a8361166e565b507fb23f6ce72d618df33a33105741ed7e13469f7f9ca6eda19e5e505b28783b1f288888868686604051610cd295949392919061172f565b60405180910390a15050505050505050565b610cec610d5d565b6001600160a01b038116610d515760405162461bcd60e51b815260206004820152602660248201527f4f776e61626c653a206e6577206f776e657220697320746865207a65726f206160448201526564647265737360d01b60648201526084016105d4565b610d5a81610e44565b50565b6000546001600160a01b031633146108a55760405162461bcd60e51b815260206004820181905260248201527f4f776e61626c653a2063616c6c6572206973206e6f7420746865206f776e657260448201526064016105d4565b60048054604051634164020160e01b81529182018390526001600160a01b031690634164020190602401600060405180830381600087803b158015610dfb57600080fd5b505af1158015610e0f573d6000803e3d6000fd5b505050507fce44720b7462058f31ddecab3daa427921e5975d9acb555f043682dada86656981604051610b2691815260200190565b600080546001600160a01b038381166001600160a01b0319831681178455604051919092169283917f8be0079c531659141344cd1fd0a4f28419497f9722a3daafe3b4186f6b6457e09190a35050565b60405180608001604052806004906020820280368337509192915050565b600183019183908215610f3e5791602002820160005b83821115610f0c57835183826101000a81548163ffffffff021916908363ffffffff1602179055509260200192600401602081600301049283019260010302610ec8565b8015610f3c5782816101000a81549063ffffffff0219169055600401602081600301049283019260010302610f0c565b505b50610f4a929150610f4e565b5090565b5b80821115610f4a5760008155600101610f4f565b600060208284031215610f7557600080fd5b5035919050565b6000815180845260005b81811015610fa257602081850181015186830182015201610f86565b506000602082860101526020601f19601f83011685010191505092915050565b602081526000610fd56020830184610f7c565b9392505050565b60808101818360005b600481101561100a57815163ffffffff16835260209283019290910190600101610fe5565b50505092915050565b6000602080830181845280855180835260408601915060408160051b870101925083870160005b8281101561106857603f19888603018452611056858351610f7c565b9450928501929085019060010161103a565b5092979650505050505050565b60006020828403121561108757600080fd5b81356001600160a01b0381168114610fd557600080fd5b60008083601f8401126110b057600080fd5b50813567ffffffffffffffff8111156110c857600080fd5b6020830191508360208285010111156110e057600080fd5b9250929050565b60008060008060008060006080888a03121561110257600080fd5b873567ffffffffffffffff8082111561111a57600080fd5b6111268b838c0161109e565b909950975060208a013591508082111561113f57600080fd5b61114b8b838c0161109e565b909750955060408a013591508082111561116457600080fd5b506111718a828b0161109e565b989b979a50959894979596606090950135949350505050565b634e487b7160e01b600052604160045260246000fd5b803563ffffffff811681146111b457600080fd5b919050565b6000608082840312156111cb57600080fd5b82601f8301126111da57600080fd5b6040516080810181811067ffffffffffffffff821117156111fd576111fd61118a565b60405280608084018581111561121257600080fd5b845b8181101561123357611225816111a0565b835260209283019201611214565b509195945050505050565b803567ffffffffffffffff811681146111b457600080fd5b8015158114610d5a57600080fd5b600060a0828403121561127657600080fd5b60405160a0810181811067ffffffffffffffff821117156112995761129961118a565b6040529050806112a8836111a0565b81526112b66020840161123e565b60208201526112c76040840161123e565b604082015260608301356112da81611256565b6060820152608092830135920191909152919050565b600080600080600080600080610120898b03121561130d57600080fd5b883567ffffffffffffffff8082111561132557600080fd5b6113318c838d0161109e565b909a50985060208b013591508082111561134a57600080fd5b818b0191508b601f83011261135e57600080fd5b81358181111561136d57600080fd5b8c60208260051b850101111561138257600080fd5b6020830198508097505060408b01359150808211156113a057600080fd5b506113ad8b828c0161109e565b909550935050606089013591506113c78a60808b01611264565b90509295985092959890939650565b634e487b7160e01b600052601160045260246000fd5b80820180821115610adb57610adb6113d6565b600181811c9082168061141357607f821691505b60208210810361143357634e487b7160e01b600052602260045260246000fd5b50919050565b8082028115828204841417610adb57610adb6113d6565b60008261146d57634e487b7160e01b600052601260045260246000fd5b500490565b60006020828403121561148457600080fd5b5051919050565b60006020828403121561149d57600080fd5b8151610fd581611256565b81810381811115610adb57610adb6113d6565b81835281816020850137506000828201602090810191909152601f909101601f19169091010190565b6080815260006114f860808301898b6114bb565b828103602084015261150b81888a6114bb565b905082810360408401526115208186886114bb565b91505082606083015298975050505050505050565b6020815260006115496020830184866114bb565b949350505050565b60006101208083526115668184018b8d6114bb565b8381036020858101919091528982528a925090810160005b8a8110156115ab5767ffffffffffffffff6115988561123e565b168252928201929082019060010161157e565b5084810360408601526115bf81898b6114bb565b93505085606085015263ffffffff85511660808501528085015191505067ffffffffffffffff80821660a08501528060408601511660c085015250506060830151151560e083015260808301516101008301529998505050505050505050565b601f82111561166957600081815260208120601f850160051c810160208610156116465750805b601f850160051c820191505b8181101561166557828155600101611652565b5050505b505050565b67ffffffffffffffff8311156116865761168661118a565b61169a8361169483546113ff565b8361161f565b6000601f8411600181146116ce57600085156116b65750838201355b600019600387901b1c1916600186901b178355611728565b600083815260209020601f19861690835b828110156116ff57868501358255602094850194600190920191016116df565b508682101561171c5760001960f88860031b161c19848701351681555b505060018560011b0183555b5050505050565b6060815260006117436060830187896114bb565b82810360208401526117568186886114bb565b915050826040830152969550505050505056fea2646970667358221220dc54b16495964c32163deb5396c8ab8327a44aa63d00eb9b9a2e9cd934c976f764736f6c634300081200336080604052670de0b6b3a76400006007553480156200001d57600080fd5b506040518060400160405280601d81526020017f646563656e7472616c697a65207374616b696e67207769746820737376000000815250604051806040016040528060068152602001650e6e6ec8aa8960d31b8152508160039081620000849190620001c3565b506004620000938282620001c3565b505050620000b0620000aa620000c860201b60201c565b620000cc565b600680546001600160a01b031916331790556200028f565b3390565b600580546001600160a01b038381166001600160a01b0319831681179093556040519116919082907f8be0079c531659141344cd1fd0a4f28419497f9722a3daafe3b4186f6b6457e090600090a35050565b634e487b7160e01b600052604160045260246000fd5b600181811c908216806200014957607f821691505b6020821081036200016a57634e487b7160e01b600052602260045260246000fd5b50919050565b601f821115620001be57600081815260208120601f850160051c81016020861015620001995750805b601f850160051c820191505b81811015620001ba57828155600101620001a5565b5050505b505050565b81516001600160401b03811115620001df57620001df6200011e565b620001f781620001f0845462000134565b8462000170565b602080601f8311600181146200022f5760008415620002165750858301515b600019600386901b1c1916600185901b178555620001ba565b600085815260208120601f198616915b8281101562000260578886015182559484019460019091019084016200023f565b50858210156200027f5787850151600019600388901b60f8161c191681555b5050505050600190811b01905550565b610b7b806200029f6000396000f3fe608060405234801561001057600080fd5b50600436106101165760003560e01c806370a08231116100a257806395d89b411161007157806395d89b4114610241578063a457c2d714610249578063a9059cbb1461025c578063dd62ed3e1461026f578063f2fde38b1461028257600080fd5b806370a08231146101f6578063715018a61461021f57806387269729146102275780638da5cb5b1461023057600080fd5b806323b872dd116100e957806323b872dd14610199578063313ce567146101ac57806339509351146101bb57806340c10f19146101ce57806341640201146101e357600080fd5b806306fdde031461011b5780630754617214610139578063095ea7b31461016457806318160ddd14610187575b600080fd5b610123610295565b60405161013091906109ac565b60405180910390f35b60065461014c906001600160a01b031681565b6040516001600160a01b039091168152602001610130565b610177610172366004610a16565b610327565b6040519015158152602001610130565b6002545b604051908152602001610130565b6101776101a7366004610a40565b610341565b60405160128152602001610130565b6101776101c9366004610a16565b610365565b6101e16101dc366004610a16565b610387565b005b6101e16101f1366004610a7c565b61039d565b61018b610204366004610a95565b6001600160a01b031660009081526020819052604090205490565b6101e16103aa565b61018b60075481565b6005546001600160a01b031661014c565b6101236103be565b610177610257366004610a16565b6103cd565b61017761026a366004610a16565b61044d565b61018b61027d366004610ab7565b61045b565b6101e1610290366004610a95565b610486565b6060600380546102a490610aea565b80601f01602080910402602001604051908101604052809291908181526020018280546102d090610aea565b801561031d5780601f106102f25761010080835404028352916020019161031d565b820191906000526020600020905b81548152906001019060200180831161030057829003601f168201915b5050505050905090565b6000336103358185856104ff565b60019150505b92915050565b60003361034f858285610623565b61035a85858561069d565b506001949350505050565b600033610335818585610378838361045b565b6103829190610b24565b6104ff565b61038f610841565b610399828261089b565b5050565b6103a5610841565b600755565b6103b2610841565b6103bc600061095a565b565b6060600480546102a490610aea565b600033816103db828661045b565b9050838110156104405760405162461bcd60e51b815260206004820152602560248201527f45524332303a2064656372656173656420616c6c6f77616e63652062656c6f77604482015264207a65726f60d81b60648201526084015b60405180910390fd5b61035a82868684036104ff565b60003361033581858561069d565b6001600160a01b03918216600090815260016020908152604080832093909416825291909152205490565b61048e610841565b6001600160a01b0381166104f35760405162461bcd60e51b815260206004820152602660248201527f4f776e61626c653a206e6577206f776e657220697320746865207a65726f206160448201526564647265737360d01b6064820152608401610437565b6104fc8161095a565b50565b6001600160a01b0383166105615760405162461bcd60e51b8152602060048201526024808201527f45524332303a20617070726f76652066726f6d20746865207a65726f206164646044820152637265737360e01b6064820152608401610437565b6001600160a01b0382166105c25760405162461bcd60e51b815260206004820152602260248201527f45524332303a20617070726f766520746f20746865207a65726f206164647265604482015261737360f01b6064820152608401610437565b6001600160a01b0383811660008181526001602090815260408083209487168084529482529182902085905590518481527f8c5be1e5ebec7d5bd14f71427d1e84f3dd0314c0f7b2291e5b200ac8c7c3b925910160405180910390a3505050565b600061062f848461045b565b90506000198114610697578181101561068a5760405162461bcd60e51b815260206004820152601d60248201527f45524332303a20696e73756666696369656e7420616c6c6f77616e63650000006044820152606401610437565b61069784848484036104ff565b50505050565b6001600160a01b0383166107015760405162461bcd60e51b815260206004820152602560248201527f45524332303a207472616e736665722066726f6d20746865207a65726f206164604482015264647265737360d81b6064820152608401610437565b6001600160a01b0382166107635760405162461bcd60e51b815260206004820152602360248201527f45524332303a207472616e7366657220746f20746865207a65726f206164647260448201526265737360e81b6064820152608401610437565b6001600160a01b038316600090815260208190526040902054818110156107db5760405162461bcd60e51b815260206004820152602660248201527f45524332303a207472616e7366657220616d6f756e7420657863656564732062604482015265616c616e636560d01b6064820152608401610437565b6001600160a01b03848116600081815260208181526040808320878703905593871680835291849020805487019055925185815290927fddf252ad1be2c89b69c2b068fc378daa952ba7f163c4a11628f55a4df523b3ef910160405180910390a3610697565b6005546001600160a01b031633146103bc5760405162461bcd60e51b815260206004820181905260248201527f4f776e61626c653a2063616c6c6572206973206e6f7420746865206f776e65726044820152606401610437565b6001600160a01b0382166108f15760405162461bcd60e51b815260206004820152601f60248201527f45524332303a206d696e7420746f20746865207a65726f2061646472657373006044820152606401610437565b80600260008282546109039190610b24565b90915550506001600160a01b038216600081815260208181526040808320805486019055518481527fddf252ad1be2c89b69c2b068fc378daa952ba7f163c4a11628f55a4df523b3ef910160405180910390a35050565b600580546001600160a01b038381166001600160a01b0319831681179093556040519116919082907f8be0079c531659141344cd1fd0a4f28419497f9722a3daafe3b4186f6b6457e090600090a35050565b600060208083528351808285015260005b818110156109d9578581018301518582016040015282016109bd565b506000604082860101526040601f19601f8301168501019250505092915050565b80356001600160a01b0381168114610a1157600080fd5b919050565b60008060408385031215610a2957600080fd5b610a32836109fa565b946020939093013593505050565b600080600060608486031215610a5557600080fd5b610a5e846109fa565b9250610a6c602085016109fa565b9150604084013590509250925092565b600060208284031215610a8e57600080fd5b5035919050565b600060208284031215610aa757600080fd5b610ab0826109fa565b9392505050565b60008060408385031215610aca57600080fd5b610ad3836109fa565b9150610ae1602084016109fa565b90509250929050565b600181811c90821680610afe57607f821691505b602082108103610b1e57634e487b7160e01b600052602260045260246000fd5b50919050565b8082018082111561033b57634e487b7160e01b600052601160045260246000fdfea2646970667358221220ba5c4a38d36085826d3caeea30cec59042e4336cda952e167f7ccbc40822a12364736f6c63430008120033",
  "bytecodeSha1": "4b37600273867e9bc6a2d922ddc2e9081617e964",
  "compiler": {
    "evm_version": "istanbul",
    "optimizer": {
      "enabled": true,
      "runs": 200
    },
    "version": "0.8.18+commit.87f61d96"
  },
  "contractName": "StakingPool",
  "language": "Solidity",
  "natspec": {
    "errors": {
      "StakingPool__CantStakeZeroAmount(uint256)": [
        {
          "notice": "this contract utilizes custom errors to optimize gas usage, instead of normal `require` conditionals. By using custom errors instead, we don't need to use up storage space on the `require`'s revert string messages. This also allows developers and users to see customizable output values when the custom error is invoked "
        }
      ]
    },
    "kind": "dev",
    "methods": {
      "depositShares(bytes,uint64[],bytes,uint256,(uint32,uint64,uint64,bool,uint256))": {
        "details": "Callable by the whitelisted address",
        "notice": "Deposit shares for a validator",
        "params": {
          "_amount": ": Amount of tokens to be deposited",
          "_cluster": ": Latest Cluster information",
          "_operatorIds": ": IDs of the validator's operators",
          "_pubkey": ": Public key of the validator",
          "_shares": ": Public keys of the shares"
        }
      },
      "depositValidator(bytes,bytes,bytes,bytes32)": {
        "notice": "Deposit a validator to the deposit contract",
        "params": {
          "_deposit_data_root": ": Root of the deposit data",
          "_pubkey": ": Public key of the validator",
          "_signature": ": Signature of the deposit data",
          "_withdrawal_credentials": ": Withdrawal credentials of the validator"
        }
      },
      "getBeaconRewards()": {
        "notice": "Get beacon rewards"
      },
      "getExecutionRewards()": {
        "notice": "Get execution rewards"
      },
      "getOperators()": {
        "notice": "Get operator ids, check operators here https://explorer.ssv.network/"
      },
      "getShareprice()": {
        "notice": "Get share price"
      },
      "getUserStake(address)": {
        "notice": "Get user's staked amount"
      },
      "getValidators()": {
        "notice": "Get validators array"
      },
      "owner()": {
        "details": "Returns the address of the current owner."
      },
      "renounceOwnership()": {
        "details": "Leaves the contract without owner. It will not be possible to call `onlyOwner` functions anymore. Can only be called by the current owner. NOTE: Renouncing ownership will leave the contract without an owner, thereby removing any functionality that is only available to the owner."
      },
      "stake()": {
        "notice": "Stake tokens"
      },
      "transferOwnership(address)": {
        "details": "Transfers ownership of the contract to a new account (`newOwner`). Can only be called by the current owner."
      },
      "unStake(uint256)": {
        "notice": "Unstake tokens",
        "params": {
          "_amount": ": Amount to be unstaked"
        }
      },
      "updateBeaconRewards(uint256)": {
        "details": "Update share price of the staking pool",
        "params": {
          "_newBeaconRewards": ": The new beacon rewards amount"
        }
      },
      "updateOperators(uint32[4])": {
        "details": "Update operators",
        "params": {
          "_newOperators": ": Array of the the new operators Ids"
        }
      }
    },
    "version": 1
  },
  "opcodes": "PUSH1 0x80 PUSH1 0x40 MSTORE PUSH1 0x4 CALLDATASIZE LT PUSH2 0x139 JUMPI PUSH1 0x0 CALLDATALOAD PUSH1 0xE0 SHR DUP1 PUSH4 0x8DA5CB5B GT PUSH2 0xAB JUMPI DUP1 PUSH4 0xDF8AF7C2 GT PUSH2 0x6F JUMPI DUP1 PUSH4 0xDF8AF7C2 EQ PUSH2 0x375 JUMPI DUP1 PUSH4 0xE6EBE20C EQ PUSH2 0x395 JUMPI DUP1 PUSH4 0xED97013B EQ PUSH2 0x3AA JUMPI DUP1 PUSH4 0xEDCA4C12 EQ PUSH2 0x3CA JUMPI DUP1 PUSH4 0xF2FDE38B EQ PUSH2 0x3EA JUMPI DUP1 PUSH4 0xF8D0C40B EQ PUSH2 0x40A JUMPI PUSH1 0x0 DUP1 REVERT JUMPDEST DUP1 PUSH4 0x8DA5CB5B EQ PUSH2 0x2BF JUMPI DUP1 PUSH4 0xB7AB4DB5 EQ PUSH2 0x2DD JUMPI DUP1 PUSH4 0xBBADC93A EQ PUSH2 0x2FF JUMPI DUP1 PUSH4 0xBF3A6C0A EQ PUSH2 0x335 JUMPI DUP1 PUSH4 0xCC9FBB76 EQ PUSH2 0x355 JUMPI PUSH1 0x0 DUP1 REVERT JUMPDEST DUP1 PUSH4 0x2601D3C7 GT PUSH2 0xFD JUMPI DUP1 PUSH4 0x2601D3C7 EQ PUSH2 0x20C JUMPI DUP1 PUSH4 0x27A099D8 EQ PUSH2 0x22C JUMPI DUP1 PUSH4 0x3A4B66F1 EQ PUSH2 0x24E JUMPI DUP1 PUSH4 0x5D3EEA91 EQ PUSH2 0x256 JUMPI DUP1 PUSH4 0x715018A6 EQ PUSH2 0x276 JUMPI DUP1 PUSH4 0x7B4BC935 EQ PUSH2 0x28B JUMPI PUSH1 0x0 DUP1 REVERT JUMPDEST DUP1 PUSH4 0x60C8AD7 EQ PUSH2 0x14E JUMPI DUP1 PUSH4 0x7D0E540 EQ PUSH2 0x172 JUMPI DUP1 PUSH4 0x7DC739F EQ PUSH2 0x1AA JUMPI DUP1 PUSH4 0xDF8D1E8 EQ PUSH2 0x1D7 JUMPI DUP1 PUSH4 0x1B7E5127 EQ PUSH2 0x1EC JUMPI PUSH1 0x0 DUP1 REVERT JUMPDEST CALLDATASIZE PUSH2 0x149 JUMPI PUSH2 0x147 CALLVALUE PUSH2 0x42A JUMP JUMPDEST STOP JUMPDEST PUSH1 0x0 DUP1 REVERT JUMPDEST CALLVALUE DUP1 ISZERO PUSH2 0x15A JUMPI PUSH1 0x0 DUP1 REVERT JUMPDEST POP PUSH1 0x9 SLOAD JUMPDEST PUSH1 0x40 MLOAD SWAP1 DUP2 MSTORE PUSH1 0x20 ADD JUMPDEST PUSH1 0x40 MLOAD DUP1 SWAP2 SUB SWAP1 RETURN JUMPDEST CALLVALUE DUP1 ISZERO PUSH2 0x17E JUMPI PUSH1 0x0 DUP1 REVERT JUMPDEST POP PUSH1 0x5 SLOAD PUSH2 0x192 SWAP1 PUSH1 0x1 PUSH1 0x1 PUSH1 0xA0 SHL SUB AND DUP2 JUMP JUMPDEST PUSH1 0x40 MLOAD PUSH1 0x1 PUSH1 0x1 PUSH1 0xA0 SHL SUB SWAP1 SWAP2 AND DUP2 MSTORE PUSH1 0x20 ADD PUSH2 0x169 JUMP JUMPDEST CALLVALUE DUP1 ISZERO PUSH2 0x1B6 JUMPI PUSH1 0x0 DUP1 REVERT JUMPDEST POP PUSH2 0x1CA PUSH2 0x1C5 CALLDATASIZE PUSH1 0x4 PUSH2 0xF63 JUMP JUMPDEST PUSH2 0x444 JUMP JUMPDEST PUSH1 0x40 MLOAD PUSH2 0x169 SWAP2 SWAP1 PUSH2 0xFC2 JUMP JUMPDEST CALLVALUE DUP1 ISZERO PUSH2 0x1E3 JUMPI PUSH1 0x0 DUP1 REVERT JUMPDEST POP PUSH1 0xA SLOAD PUSH2 0x15F JUMP JUMPDEST CALLVALUE DUP1 ISZERO PUSH2 0x1F8 JUMPI PUSH1 0x0 DUP1 REVERT JUMPDEST POP PUSH2 0x147 PUSH2 0x207 CALLDATASIZE PUSH1 0x4 PUSH2 0xF63 JUMP JUMPDEST PUSH2 0x4F0 JUMP JUMPDEST CALLVALUE DUP1 ISZERO PUSH2 0x218 JUMPI PUSH1 0x0 DUP1 REVERT JUMPDEST POP PUSH1 0x3 SLOAD PUSH2 0x192 SWAP1 PUSH1 0x1 PUSH1 0x1 PUSH1 0xA0 SHL SUB AND DUP2 JUMP JUMPDEST CALLVALUE DUP1 ISZERO PUSH2 0x238 JUMPI PUSH1 0x0 DUP1 REVERT JUMPDEST POP PUSH2 0x241 PUSH2 0x54F JUMP JUMPDEST PUSH1 0x40 MLOAD PUSH2 0x169 SWAP2 SWAP1 PUSH2 0xFDC JUMP JUMPDEST PUSH2 0x147 PUSH2 0x5B5 JUMP JUMPDEST CALLVALUE DUP1 ISZERO PUSH2 0x262 JUMPI PUSH1 0x0 DUP1 REVERT JUMPDEST POP PUSH2 0x147 PUSH2 0x271 CALLDATASIZE PUSH1 0x4 PUSH2 0xF63 JUMP JUMPDEST PUSH2 0x728 JUMP JUMPDEST CALLVALUE DUP1 ISZERO PUSH2 0x282 JUMPI PUSH1 0x0 DUP1 REVERT JUMPDEST POP PUSH2 0x147 PUSH2 0x893 JUMP JUMPDEST CALLVALUE DUP1 ISZERO PUSH2 0x297 JUMPI PUSH1 0x0 DUP1 REVERT JUMPDEST POP PUSH2 0x15F PUSH32 0x0 DUP2 JUMP JUMPDEST CALLVALUE DUP1 ISZERO PUSH2 0x2CB JUMPI PUSH1 0x0 DUP1 REVERT JUMPDEST POP PUSH1 0x0 SLOAD PUSH1 0x1 PUSH1 0x1 PUSH1 0xA0 SHL SUB AND PUSH2 0x192 JUMP JUMPDEST CALLVALUE DUP1 ISZERO PUSH2 0x2E9 JUMPI PUSH1 0x0 DUP1 REVERT JUMPDEST POP PUSH2 0x2F2 PUSH2 0x8A7 JUMP JUMPDEST PUSH1 0x40 MLOAD PUSH2 0x169 SWAP2 SWAP1 PUSH2 0x1013 JUMP JUMPDEST CALLVALUE DUP1 ISZERO PUSH2 0x30B JUMPI PUSH1 0x0 DUP1 REVERT JUMPDEST POP PUSH2 0x15F PUSH2 0x31A CALLDATASIZE PUSH1 0x4 PUSH2 0x1075 JUMP JUMPDEST PUSH1 0x1 PUSH1 0x1 PUSH1 0xA0 SHL SUB AND PUSH1 0x0 SWAP1 DUP2 MSTORE PUSH1 0xB PUSH1 0x20 MSTORE PUSH1 0x40 SWAP1 KECCAK256 SLOAD SWAP1 JUMP JUMPDEST CALLVALUE DUP1 ISZERO PUSH2 0x341 JUMPI PUSH1 0x0 DUP1 REVERT JUMPDEST POP PUSH2 0x147 PUSH2 0x350 CALLDATASIZE PUSH1 0x4 PUSH2 0x10E7 JUMP JUMPDEST PUSH2 0x980 JUMP JUMPDEST CALLVALUE DUP1 ISZERO PUSH2 0x361 JUMPI PUSH1 0x0 DUP1 REVERT JUMPDEST POP PUSH1 0x6 SLOAD PUSH2 0x192 SWAP1 PUSH1 0x1 PUSH1 0x1 PUSH1 0xA0 SHL SUB AND DUP2 JUMP JUMPDEST CALLVALUE DUP1 ISZERO PUSH2 0x381 JUMPI PUSH1 0x0 DUP1 REVERT JUMPDEST POP PUSH1 0x4 SLOAD PUSH2 0x192 SWAP1 PUSH1 0x1 PUSH1 0x1 PUSH1 0xA0 SHL SUB AND DUP2 JUMP JUMPDEST CALLVALUE DUP1 ISZERO PUSH2 0x3A1 JUMPI PUSH1 0x0 DUP1 REVERT JUMPDEST POP PUSH2 0x15F PUSH2 0xA6E JUMP JUMPDEST CALLVALUE DUP1 ISZERO PUSH2 0x3B6 JUMPI PUSH1 0x0 DUP1 REVERT JUMPDEST POP PUSH2 0x147 PUSH2 0x3C5 CALLDATASIZE PUSH1 0x4 PUSH2 0x11B9 JUMP JUMPDEST PUSH2 0xAE1 JUMP JUMPDEST CALLVALUE DUP1 ISZERO PUSH2 0x3D6 JUMPI PUSH1 0x0 DUP1 REVERT JUMPDEST POP PUSH2 0x147 PUSH2 0x3E5 CALLDATASIZE PUSH1 0x4 PUSH2 0x12F0 JUMP JUMPDEST PUSH2 0xB31 JUMP JUMPDEST CALLVALUE DUP1 ISZERO PUSH2 0x3F6 JUMPI PUSH1 0x0 DUP1 REVERT JUMPDEST POP PUSH2 0x147 PUSH2 0x405 CALLDATASIZE PUSH1 0x4 PUSH2 0x1075 JUMP JUMPDEST PUSH2 0xCE4 JUMP JUMPDEST CALLVALUE DUP1 ISZERO PUSH2 0x416 JUMPI PUSH1 0x0 DUP1 REVERT JUMPDEST POP PUSH1 0x2 SLOAD PUSH2 0x192 SWAP1 PUSH1 0x1 PUSH1 0x1 PUSH1 0xA0 SHL SUB AND DUP2 JUMP JUMPDEST DUP1 PUSH1 0xA PUSH1 0x0 DUP3 DUP3 SLOAD PUSH2 0x43C SWAP2 SWAP1 PUSH2 0x13EC JUMP JUMPDEST SWAP1 SWAP2 SSTORE POP POP POP JUMP JUMPDEST PUSH1 0x8 DUP2 DUP2 SLOAD DUP2 LT PUSH2 0x454 JUMPI PUSH1 0x0 DUP1 REVERT JUMPDEST SWAP1 PUSH1 0x0 MSTORE PUSH1 0x20 PUSH1 0x0 KECCAK256 ADD PUSH1 0x0 SWAP2 POP SWAP1 POP DUP1 SLOAD PUSH2 0x46F SWAP1 PUSH2 0x13FF JUMP JUMPDEST DUP1 PUSH1 0x1F ADD PUSH1 0x20 DUP1 SWAP2 DIV MUL PUSH1 0x20 ADD PUSH1 0x40 MLOAD SWAP1 DUP2 ADD PUSH1 0x40 MSTORE DUP1 SWAP3 SWAP2 SWAP1 DUP2 DUP2 MSTORE PUSH1 0x20 ADD DUP3 DUP1 SLOAD PUSH2 0x49B SWAP1 PUSH2 0x13FF JUMP JUMPDEST DUP1 ISZERO PUSH2 0x4E8 JUMPI DUP1 PUSH1 0x1F LT PUSH2 0x4BD JUMPI PUSH2 0x100 DUP1 DUP4 SLOAD DIV MUL DUP4 MSTORE SWAP2 PUSH1 0x20 ADD SWAP2 PUSH2 0x4E8 JUMP JUMPDEST DUP3 ADD SWAP2 SWAP1 PUSH1 0x0 MSTORE PUSH1 0x20 PUSH1 0x0 KECCAK256 SWAP1 JUMPDEST DUP2 SLOAD DUP2 MSTORE SWAP1 PUSH1 0x1 ADD SWAP1 PUSH1 0x20 ADD DUP1 DUP4 GT PUSH2 0x4CB JUMPI DUP3 SWAP1 SUB PUSH1 0x1F AND DUP3 ADD SWAP2 JUMPDEST POP POP POP POP POP DUP2 JUMP JUMPDEST PUSH2 0x4F8 PUSH2 0xD5D JUMP JUMPDEST PUSH1 0x9 DUP2 SWAP1 SSTORE PUSH1 0x8 SLOAD PUSH1 0x0 SWAP1 PUSH2 0x50E SWAP1 PUSH1 0x20 PUSH2 0x1439 JUMP JUMPDEST PUSH1 0x8 SLOAD PUSH2 0x51C SWAP1 PUSH1 0x20 PUSH2 0x1439 JUMP JUMPDEST PUSH1 0xA SLOAD PUSH1 0x9 SLOAD PUSH2 0x52C SWAP2 SWAP1 PUSH2 0x13EC JUMP JUMPDEST PUSH2 0x536 SWAP2 SWAP1 PUSH2 0x13EC JUMP JUMPDEST PUSH2 0x540 SWAP2 SWAP1 PUSH2 0x1450 JUMP JUMPDEST SWAP1 POP PUSH2 0x54B DUP2 PUSH2 0xDB7 JUMP JUMPDEST POP POP JUMP JUMPDEST PUSH2 0x557 PUSH2 0xE94 JUMP JUMPDEST PUSH1 0x40 DUP1 MLOAD PUSH1 0x80 DUP2 ADD SWAP2 DUP3 SWAP1 MSTORE SWAP1 PUSH1 0x7 SWAP1 PUSH1 0x4 SWAP1 DUP3 PUSH1 0x0 DUP6 JUMPDEST DUP3 DUP3 SWAP1 SLOAD SWAP1 PUSH2 0x100 EXP SWAP1 DIV PUSH4 0xFFFFFFFF AND PUSH4 0xFFFFFFFF AND DUP2 MSTORE PUSH1 0x20 ADD SWAP1 PUSH1 0x4 ADD SWAP1 PUSH1 0x20 DUP3 PUSH1 0x3 ADD DIV SWAP3 DUP4 ADD SWAP3 PUSH1 0x1 SUB DUP3 MUL SWAP2 POP DUP1 DUP5 GT PUSH2 0x56F JUMPI SWAP1 POP POP POP POP POP POP SWAP1 POP SWAP1 JUMP JUMPDEST PUSH1 0x0 CALLVALUE GT PUSH2 0x5DD JUMPI PUSH1 0x40 MLOAD PUSH4 0x9ED431AD PUSH1 0xE0 SHL DUP2 MSTORE CALLVALUE PUSH1 0x4 DUP3 ADD MSTORE PUSH1 0x24 ADD JUMPDEST PUSH1 0x40 MLOAD DUP1 SWAP2 SUB SWAP1 REVERT JUMPDEST PUSH1 0x4 DUP1 SLOAD PUSH1 0x40 DUP1 MLOAD PUSH4 0x87269729 PUSH1 0xE0 SHL DUP2 MSTORE SWAP1 MLOAD PUSH1 0x0 SWAP4 PUSH8 0xDE0B6B3A7640000 SWAP4 PUSH1 0x1 PUSH1 0x1 PUSH1 0xA0 SHL SUB AND SWAP3 PUSH4 0x87269729 SWAP3 DUP2 DUP4 ADD SWAP3 PUSH1 0x20 SWAP3 DUP3 SWAP1 SUB ADD DUP2 DUP7 GAS STATICCALL ISZERO DUP1 ISZERO PUSH2 0x62E JUMPI RETURNDATASIZE PUSH1 0x0 DUP1 RETURNDATACOPY RETURNDATASIZE PUSH1 0x0 REVERT JUMPDEST POP POP POP POP PUSH1 0x40 MLOAD RETURNDATASIZE PUSH1 0x1F NOT PUSH1 0x1F DUP3 ADD AND DUP3 ADD DUP1 PUSH1 0x40 MSTORE POP DUP2 ADD SWAP1 PUSH2 0x652 SWAP2 SWAP1 PUSH2 0x1472 JUMP JUMPDEST PUSH2 0x65C SWAP1 CALLVALUE PUSH2 0x1439 JUMP JUMPDEST PUSH2 0x666 SWAP2 SWAP1 PUSH2 0x1450 JUMP JUMPDEST PUSH1 0x4 DUP1 SLOAD PUSH1 0x40 MLOAD PUSH4 0x40C10F19 PUSH1 0xE0 SHL DUP2 MSTORE CALLER SWAP3 DUP2 ADD SWAP3 SWAP1 SWAP3 MSTORE PUSH1 0x24 DUP3 ADD DUP4 SWAP1 MSTORE SWAP2 SWAP3 POP PUSH1 0x1 PUSH1 0x1 PUSH1 0xA0 SHL SUB SWAP1 SWAP2 AND SWAP1 PUSH4 0x40C10F19 SWAP1 PUSH1 0x44 ADD PUSH1 0x0 PUSH1 0x40 MLOAD DUP1 DUP4 SUB DUP2 PUSH1 0x0 DUP8 DUP1 EXTCODESIZE ISZERO DUP1 ISZERO PUSH2 0x6B8 JUMPI PUSH1 0x0 DUP1 REVERT JUMPDEST POP GAS CALL ISZERO DUP1 ISZERO PUSH2 0x6CC JUMPI RETURNDATASIZE PUSH1 0x0 DUP1 RETURNDATACOPY RETURNDATASIZE PUSH1 0x0 REVERT JUMPDEST POP POP PUSH1 0x40 DUP1 MLOAD CALLER DUP2 MSTORE CALLVALUE PUSH1 0x20 DUP3 ADD MSTORE PUSH32 0x8C265ADCFA641899D6632B86254DDA7A76F27701F1D21A732621D51F2328C460 SWAP4 POP ADD SWAP1 POP PUSH1 0x40 MLOAD DUP1 SWAP2 SUB SWAP1 LOG1 CALLER PUSH1 0x0 SWAP1 DUP2 MSTORE PUSH1 0xB PUSH1 0x20 MSTORE PUSH1 0x40 DUP2 KECCAK256 DUP1 SLOAD CALLVALUE SWAP3 SWAP1 PUSH2 0x43C SWAP1 DUP5 SWAP1 PUSH2 0x13EC JUMP JUMPDEST PUSH1 0x4 DUP1 SLOAD PUSH1 0x40 MLOAD PUSH4 0x23B872DD PUSH1 0xE0 SHL DUP2 MSTORE CALLER SWAP3 DUP2 ADD SWAP3 SWAP1 SWAP3 MSTORE ADDRESS PUSH1 0x24 DUP4 ADD MSTORE PUSH1 0x44 DUP3 ADD DUP4 SWAP1 MSTORE PUSH1 0x1 PUSH1 0x1 PUSH1 0xA0 SHL SUB AND SWAP1 PUSH4 0x23B872DD SWAP1 PUSH1 0x64 ADD PUSH1 0x20 PUSH1 0x40 MLOAD DUP1 DUP4 SUB DUP2 PUSH1 0x0 DUP8 GAS CALL ISZERO DUP1 ISZERO PUSH2 0x780 JUMPI RETURNDATASIZE PUSH1 0x0 DUP1 RETURNDATACOPY RETURNDATASIZE PUSH1 0x0 REVERT JUMPDEST POP POP POP POP PUSH1 0x40 MLOAD RETURNDATASIZE PUSH1 0x1F NOT PUSH1 0x1F DUP3 ADD AND DUP3 ADD DUP1 PUSH1 0x40 MSTORE POP DUP2 ADD SWAP1 PUSH2 0x7A4 SWAP2 SWAP1 PUSH2 0x148B JUMP JUMPDEST POP PUSH1 0x0 PUSH1 0x4 PUSH1 0x0 SWAP1 SLOAD SWAP1 PUSH2 0x100 EXP SWAP1 DIV PUSH1 0x1 PUSH1 0x1 PUSH1 0xA0 SHL SUB AND PUSH1 0x1 PUSH1 0x1 PUSH1 0xA0 SHL SUB AND PUSH4 0x87269729 PUSH1 0x40 MLOAD DUP2 PUSH4 0xFFFFFFFF AND PUSH1 0xE0 SHL DUP2 MSTORE PUSH1 0x4 ADD PUSH1 0x20 PUSH1 0x40 MLOAD DUP1 DUP4 SUB DUP2 DUP7 GAS STATICCALL ISZERO DUP1 ISZERO PUSH2 0x7FA JUMPI RETURNDATASIZE PUSH1 0x0 DUP1 RETURNDATACOPY RETURNDATASIZE PUSH1 0x0 REVERT JUMPDEST POP POP POP POP PUSH1 0x40 MLOAD RETURNDATASIZE PUSH1 0x1F NOT PUSH1 0x1F DUP3 ADD AND DUP3 ADD DUP1 PUSH1 0x40 MSTORE POP DUP2 ADD SWAP1 PUSH2 0x81E SWAP2 SWAP1 PUSH2 0x1472 JUMP JUMPDEST PUSH2 0x828 SWAP1 DUP4 PUSH2 0x1450 JUMP JUMPDEST PUSH2 0x83A SWAP1 PUSH8 0xDE0B6B3A7640000 PUSH2 0x1439 JUMP JUMPDEST PUSH1 0x40 MLOAD SWAP1 SWAP2 POP CALLER SWAP1 DUP3 ISZERO PUSH2 0x8FC MUL SWAP1 DUP4 SWAP1 PUSH1 0x0 DUP2 DUP2 DUP2 DUP6 DUP9 DUP9 CALL SWAP4 POP POP POP POP ISZERO DUP1 ISZERO PUSH2 0x86A JUMPI RETURNDATASIZE PUSH1 0x0 DUP1 RETURNDATACOPY RETURNDATASIZE PUSH1 0x0 REVERT JUMPDEST POP CALLER PUSH1 0x0 SWAP1 DUP2 MSTORE PUSH1 0xB PUSH1 0x20 MSTORE PUSH1 0x40 DUP2 KECCAK256 DUP1 SLOAD DUP5 SWAP3 SWAP1 PUSH2 0x88A SWAP1 DUP5 SWAP1 PUSH2 0x14A8 JUMP JUMPDEST SWAP1 SWAP2 SSTORE POP POP POP POP JUMP JUMPDEST PUSH2 0x89B PUSH2 0xD5D JUMP JUMPDEST PUSH2 0x8A5 PUSH1 0x0 PUSH2 0xE44 JUMP JUMPDEST JUMP JUMPDEST PUSH1 0x60 PUSH1 0x8 DUP1 SLOAD DUP1 PUSH1 0x20 MUL PUSH1 0x20 ADD PUSH1 0x40 MLOAD SWAP1 DUP2 ADD PUSH1 0x40 MSTORE DUP1 SWAP3 SWAP2 SWAP1 DUP2 DUP2 MSTORE PUSH1 0x20 ADD PUSH1 0x0 SWAP1 JUMPDEST DUP3 DUP3 LT ISZERO PUSH2 0x977 JUMPI DUP4 DUP3 SWAP1 PUSH1 0x0 MSTORE PUSH1 0x20 PUSH1 0x0 KECCAK256 ADD DUP1 SLOAD PUSH2 0x8EA SWAP1 PUSH2 0x13FF JUMP JUMPDEST DUP1 PUSH1 0x1F ADD PUSH1 0x20 DUP1 SWAP2 DIV MUL PUSH1 0x20 ADD PUSH1 0x40 MLOAD SWAP1 DUP2 ADD PUSH1 0x40 MSTORE DUP1 SWAP3 SWAP2 SWAP1 DUP2 DUP2 MSTORE PUSH1 0x20 ADD DUP3 DUP1 SLOAD PUSH2 0x916 SWAP1 PUSH2 0x13FF JUMP JUMPDEST DUP1 ISZERO PUSH2 0x963 JUMPI DUP1 PUSH1 0x1F LT PUSH2 0x938 JUMPI PUSH2 0x100 DUP1 DUP4 SLOAD DIV MUL DUP4 MSTORE SWAP2 PUSH1 0x20 ADD SWAP2 PUSH2 0x963 JUMP JUMPDEST DUP3 ADD SWAP2 SWAP1 PUSH1 0x0 MSTORE PUSH1 0x20 PUSH1 0x0 KECCAK256 SWAP1 JUMPDEST DUP2 SLOAD DUP2 MSTORE SWAP1 PUSH1 0x1 ADD SWAP1 PUSH1 0x20 ADD DUP1 DUP4 GT PUSH2 0x946 JUMPI DUP3 SWAP1 SUB PUSH1 0x1F AND DUP3 ADD SWAP2 JUMPDEST POP POP POP POP POP DUP2 MSTORE PUSH1 0x20 ADD SWAP1 PUSH1 0x1 ADD SWAP1 PUSH2 0x8CB JUMP JUMPDEST POP POP POP POP SWAP1 POP SWAP1 JUMP JUMPDEST PUSH1 0x40 MLOAD PUSH4 0x4512A23 PUSH1 0xE3 SHL DUP2 MSTORE PUSH1 0x1 PUSH1 0x1 PUSH1 0xA0 SHL SUB PUSH32 0x0 AND SWAP1 PUSH4 0x22895118 SWAP1 PUSH32 0x0 SWAP1 PUSH2 0x9FA SWAP1 DUP12 SWAP1 DUP12 SWAP1 DUP12 SWAP1 DUP12 SWAP1 DUP12 SWAP1 DUP12 SWAP1 DUP12 SWAP1 PUSH1 0x4 ADD PUSH2 0x14E4 JUMP JUMPDEST PUSH1 0x0 PUSH1 0x40 MLOAD DUP1 DUP4 SUB DUP2 DUP6 DUP9 DUP1 EXTCODESIZE ISZERO DUP1 ISZERO PUSH2 0xA13 JUMPI PUSH1 0x0 DUP1 REVERT JUMPDEST POP GAS CALL ISZERO DUP1 ISZERO PUSH2 0xA27 JUMPI RETURNDATASIZE PUSH1 0x0 DUP1 RETURNDATACOPY RETURNDATASIZE PUSH1 0x0 REVERT JUMPDEST POP POP POP POP POP PUSH32 0x144679C9E19454710222D38E13B257573A15B6CA6A4D10A1254EBC2480CB6863 DUP8 DUP8 PUSH1 0x40 MLOAD PUSH2 0xA5D SWAP3 SWAP2 SWAP1 PUSH2 0x1535 JUMP JUMPDEST PUSH1 0x40 MLOAD DUP1 SWAP2 SUB SWAP1 LOG1 POP POP POP POP POP POP POP JUMP JUMPDEST PUSH1 0x4 DUP1 SLOAD PUSH1 0x40 DUP1 MLOAD PUSH4 0x87269729 PUSH1 0xE0 SHL DUP2 MSTORE SWAP1 MLOAD PUSH1 0x0 SWAP4 DUP5 SWAP4 PUSH1 0x1 PUSH1 0x1 PUSH1 0xA0 SHL SUB AND SWAP3 PUSH4 0x87269729 SWAP3 DUP2 DUP4 ADD SWAP3 PUSH1 0x20 SWAP3 DUP3 SWAP1 SUB ADD DUP2 DUP7 GAS STATICCALL ISZERO DUP1 ISZERO PUSH2 0xAB7 JUMPI RETURNDATASIZE PUSH1 0x0 DUP1 RETURNDATACOPY RETURNDATASIZE PUSH1 0x0 REVERT JUMPDEST POP POP POP POP PUSH1 0x40 MLOAD RETURNDATASIZE PUSH1 0x1F NOT PUSH1 0x1F DUP3 ADD AND DUP3 ADD DUP1 PUSH1 0x40 MSTORE POP DUP2 ADD SWAP1 PUSH2 0xADB SWAP2 SWAP1 PUSH2 0x1472 JUMP JUMPDEST SWAP3 SWAP2 POP POP JUMP JUMPDEST PUSH2 0xAE9 PUSH2 0xD5D JUMP JUMPDEST PUSH2 0xAF6 PUSH1 0x7 DUP3 PUSH1 0x4 PUSH2 0xEB2 JUMP JUMPDEST POP PUSH32 0xA31D33307023A78B2B477792A91EFBED5EE91448638292C891E81233CB6108F8 DUP2 PUSH1 0x40 MLOAD PUSH2 0xB26 SWAP2 SWAP1 PUSH2 0xFDC JUMP JUMPDEST PUSH1 0x40 MLOAD DUP1 SWAP2 SUB SWAP1 LOG1 POP JUMP JUMPDEST PUSH1 0x2 SLOAD PUSH1 0x1 PUSH1 0x1 PUSH1 0xA0 SHL SUB AND CALLER EQ PUSH2 0xB71 JUMPI PUSH1 0x2 SLOAD PUSH1 0x40 MLOAD PUSH4 0x1F5A31F PUSH1 0xE7 SHL DUP2 MSTORE CALLER PUSH1 0x4 DUP3 ADD MSTORE PUSH1 0x1 PUSH1 0x1 PUSH1 0xA0 SHL SUB SWAP1 SWAP2 AND PUSH1 0x24 DUP3 ADD MSTORE PUSH1 0x44 ADD PUSH2 0x5D4 JUMP JUMPDEST PUSH1 0x5 SLOAD PUSH1 0x6 SLOAD PUSH1 0x40 MLOAD PUSH4 0x95EA7B3 PUSH1 0xE0 SHL DUP2 MSTORE PUSH1 0x1 PUSH1 0x1 PUSH1 0xA0 SHL SUB SWAP2 DUP3 AND PUSH1 0x4 DUP3 ADD MSTORE PUSH1 0x24 DUP2 ADD DUP6 SWAP1 MSTORE SWAP2 AND SWAP1 PUSH4 0x95EA7B3 SWAP1 PUSH1 0x44 ADD PUSH1 0x20 PUSH1 0x40 MLOAD DUP1 DUP4 SUB DUP2 PUSH1 0x0 DUP8 GAS CALL ISZERO DUP1 ISZERO PUSH2 0xBC6 JUMPI RETURNDATASIZE PUSH1 0x0 DUP1 RETURNDATACOPY RETURNDATASIZE PUSH1 0x0 REVERT JUMPDEST POP POP POP POP PUSH1 0x40 MLOAD RETURNDATASIZE PUSH1 0x1F NOT PUSH1 0x1F DUP3 ADD AND DUP3 ADD DUP1 PUSH1 0x40 MSTORE POP DUP2 ADD SWAP1 PUSH2 0xBEA SWAP2 SWAP1 PUSH2 0x148B JUMP JUMPDEST POP PUSH1 0x6 SLOAD PUSH1 0x40 MLOAD PUSH4 0x1BA3EE7 PUSH1 0xE2 SHL DUP2 MSTORE PUSH1 0x1 PUSH1 0x1 PUSH1 0xA0 SHL SUB SWAP1 SWAP2 AND SWAP1 PUSH4 0x6E8FB9C SWAP1 PUSH2 0xC29 SWAP1 DUP12 SWAP1 DUP12 SWAP1 DUP12 SWAP1 DUP12 SWAP1 DUP12 SWAP1 DUP12 SWAP1 DUP12 SWAP1 DUP12 SWAP1 PUSH1 0x4 ADD PUSH2 0x1551 JUMP JUMPDEST PUSH1 0x0 PUSH1 0x40 MLOAD DUP1 DUP4 SUB DUP2 PUSH1 0x0 DUP8 DUP1 EXTCODESIZE ISZERO DUP1 ISZERO PUSH2 0xC43 JUMPI PUSH1 0x0 DUP1 REVERT JUMPDEST POP GAS CALL ISZERO DUP1 ISZERO PUSH2 0xC57 JUMPI RETURNDATASIZE PUSH1 0x0 DUP1 RETURNDATACOPY RETURNDATASIZE PUSH1 0x0 REVERT JUMPDEST POP POP PUSH1 0x8 DUP1 SLOAD PUSH1 0x1 DUP2 ADD DUP3 SSTORE PUSH1 0x0 SWAP2 SWAP1 SWAP2 MSTORE PUSH32 0xF3F7A9FE364FAAB93B216DA50A3214154F22A0A2B415B23A84C8169E8B636EE3 ADD SWAP2 POP PUSH2 0xC9A SWAP1 POP DUP9 DUP11 DUP4 PUSH2 0x166E JUMP JUMPDEST POP PUSH32 0xB23F6CE72D618DF33A33105741ED7E13469F7F9CA6EDA19E5E505B28783B1F28 DUP9 DUP9 DUP7 DUP7 DUP7 PUSH1 0x40 MLOAD PUSH2 0xCD2 SWAP6 SWAP5 SWAP4 SWAP3 SWAP2 SWAP1 PUSH2 0x172F JUMP JUMPDEST PUSH1 0x40 MLOAD DUP1 SWAP2 SUB SWAP1 LOG1 POP POP POP POP POP POP POP POP JUMP JUMPDEST PUSH2 0xCEC PUSH2 0xD5D JUMP JUMPDEST PUSH1 0x1 PUSH1 0x1 PUSH1 0xA0 SHL SUB DUP2 AND PUSH2 0xD51 JUMPI PUSH1 0x40 MLOAD PUSH3 0x461BCD PUSH1 0xE5 SHL DUP2 MSTORE PUSH1 0x20 PUSH1 0x4 DUP3 ADD MSTORE PUSH1 0x26 PUSH1 0x24 DUP3 ADD MSTORE PUSH32 0x4F776E61626C653A206E6577206F776E657220697320746865207A65726F2061 PUSH1 0x44 DUP3 ADD MSTORE PUSH6 0x646472657373 PUSH1 0xD0 SHL PUSH1 0x64 DUP3 ADD MSTORE PUSH1 0x84 ADD PUSH2 0x5D4 JUMP JUMPDEST PUSH2 0xD5A DUP2 PUSH2 0xE44 JUMP JUMPDEST POP JUMP JUMPDEST PUSH1 0x0 SLOAD PUSH1 0x1 PUSH1 0x1 PUSH1 0xA0 SHL SUB AND CALLER EQ PUSH2 0x8A5 JUMPI PUSH1 0x40 MLOAD PUSH3 0x461BCD PUSH1 0xE5 SHL DUP2 MSTORE PUSH1 0x20 PUSH1 0x4 DUP3 ADD DUP2 SWAP1 MSTORE PUSH1 0x24 DUP3 ADD MSTORE PUSH32 0x4F776E61626C653A2063616C6C6572206973206E6F7420746865206F776E6572 PUSH1 0x44 DUP3 ADD MSTORE PUSH1 0x64 ADD PUSH2 0x5D4 JUMP JUMPDEST PUSH1 0x4 DUP1 SLOAD PUSH1 0x40 MLOAD PUSH4 0x41640201 PUSH1 0xE0 SHL DUP2 MSTORE SWAP2 DUP3 ADD DUP4 SWAP1 MSTORE PUSH1 0x1 PUSH1 0x1 PUSH1 0xA0 SHL SUB AND SWAP1 PUSH4 0x41640201 SWAP1 PUSH1 0x24 ADD PUSH1 0x0 PUSH1 0x40 MLOAD DUP1 DUP4 SUB DUP2 PUSH1 0x0 DUP8 DUP1 EXTCODESIZE ISZERO DUP1 ISZERO PUSH2 0xDFB JUMPI PUSH1 0x0 DUP1 REVERT JUMPDEST POP GAS CALL ISZERO DUP1 ISZERO PUSH2 0xE0F JUMPI RETURNDATASIZE PUSH1 0x0 DUP1 RETURNDATACOPY RETURNDATASIZE PUSH1 0x0 REVERT JUMPDEST POP POP POP POP PUSH32 0xCE44720B7462058F31DDECAB3DAA427921E5975D9ACB555F043682DADA866569 DUP2 PUSH1 0x40 MLOAD PUSH2 0xB26 SWAP2 DUP2 MSTORE PUSH1 0x20 ADD SWAP1 JUMP JUMPDEST PUSH1 0x0 DUP1 SLOAD PUSH1 0x1 PUSH1 0x1 PUSH1 0xA0 SHL SUB DUP4 DUP2 AND PUSH1 0x1 PUSH1 0x1 PUSH1 0xA0 SHL SUB NOT DUP4 AND DUP2 OR DUP5 SSTORE PUSH1 0x40 MLOAD SWAP2 SWAP1 SWAP3 AND SWAP3 DUP4 SWAP2 PUSH32 0x8BE0079C531659141344CD1FD0A4F28419497F9722A3DAAFE3B4186F6B6457E0 SWAP2 SWAP1 LOG3 POP POP JUMP JUMPDEST PUSH1 0x40 MLOAD DUP1 PUSH1 0x80 ADD PUSH1 0x40 MSTORE DUP1 PUSH1 0x4 SWAP1 PUSH1 0x20 DUP3 MUL DUP1 CALLDATASIZE DUP4 CALLDATACOPY POP SWAP2 SWAP3 SWAP2 POP POP JUMP JUMPDEST PUSH1 0x1 DUP4 ADD SWAP2 DUP4 SWAP1 DUP3 ISZERO PUSH2 0xF3E JUMPI SWAP2 PUSH1 0x20 MUL DUP3 ADD PUSH1 0x0 JUMPDEST DUP4 DUP3 GT ISZERO PUSH2 0xF0C JUMPI DUP4 MLOAD DUP4 DUP3 PUSH2 0x100 EXP DUP2 SLOAD DUP2 PUSH4 0xFFFFFFFF MUL NOT AND SWAP1 DUP4 PUSH4 0xFFFFFFFF AND MUL OR SWAP1 SSTORE POP SWAP3 PUSH1 0x20 ADD SWAP3 PUSH1 0x4 ADD PUSH1 0x20 DUP2 PUSH1 0x3 ADD DIV SWAP3 DUP4 ADD SWAP3 PUSH1 0x1 SUB MUL PUSH2 0xEC8 JUMP JUMPDEST DUP1 ISZERO PUSH2 0xF3C JUMPI DUP3 DUP2 PUSH2 0x100 EXP DUP2 SLOAD SWAP1 PUSH4 0xFFFFFFFF MUL NOT AND SWAP1 SSTORE PUSH1 0x4 ADD PUSH1 0x20 DUP2 PUSH1 0x3 ADD DIV SWAP3 DUP4 ADD SWAP3 PUSH1 0x1 SUB MUL PUSH2 0xF0C JUMP JUMPDEST POP JUMPDEST POP PUSH2 0xF4A SWAP3 SWAP2 POP PUSH2 0xF4E JUMP JUMPDEST POP SWAP1 JUMP JUMPDEST JUMPDEST DUP1 DUP3 GT ISZERO PUSH2 0xF4A JUMPI PUSH1 0x0 DUP2 SSTORE PUSH1 0x1 ADD PUSH2 0xF4F JUMP JUMPDEST PUSH1 0x0 PUSH1 0x20 DUP3 DUP5 SUB SLT ISZERO PUSH2 0xF75 JUMPI PUSH1 0x0 DUP1 REVERT JUMPDEST POP CALLDATALOAD SWAP2 SWAP1 POP JUMP JUMPDEST PUSH1 0x0 DUP2 MLOAD DUP1 DUP5 MSTORE PUSH1 0x0 JUMPDEST DUP2 DUP2 LT ISZERO PUSH2 0xFA2 JUMPI PUSH1 0x20 DUP2 DUP6 ADD DUP2 ADD MLOAD DUP7 DUP4 ADD DUP3 ADD MSTORE ADD PUSH2 0xF86 JUMP JUMPDEST POP PUSH1 0x0 PUSH1 0x20 DUP3 DUP7 ADD ADD MSTORE PUSH1 0x20 PUSH1 0x1F NOT PUSH1 0x1F DUP4 ADD AND DUP6 ADD ADD SWAP2 POP POP SWAP3 SWAP2 POP POP JUMP JUMPDEST PUSH1 0x20 DUP2 MSTORE PUSH1 0x0 PUSH2 0xFD5 PUSH1 0x20 DUP4 ADD DUP5 PUSH2 0xF7C JUMP JUMPDEST SWAP4 SWAP3 POP POP POP JUMP JUMPDEST PUSH1 0x80 DUP2 ADD DUP2 DUP4 PUSH1 0x0 JUMPDEST PUSH1 0x4 DUP2 LT ISZERO PUSH2 0x100A JUMPI DUP2 MLOAD PUSH4 0xFFFFFFFF AND DUP4 MSTORE PUSH1 0x20 SWAP3 DUP4 ADD SWAP3 SWAP1 SWAP2 ADD SWAP1 PUSH1 0x1 ADD PUSH2 0xFE5 JUMP JUMPDEST POP POP POP SWAP3 SWAP2 POP POP JUMP JUMPDEST PUSH1 0x0 PUSH1 0x20 DUP1 DUP4 ADD DUP2 DUP5 MSTORE DUP1 DUP6 MLOAD DUP1 DUP4 MSTORE PUSH1 0x40 DUP7 ADD SWAP2 POP PUSH1 0x40 DUP2 PUSH1 0x5 SHL DUP8 ADD ADD SWAP3 POP DUP4 DUP8 ADD PUSH1 0x0 JUMPDEST DUP3 DUP2 LT ISZERO PUSH2 0x1068 JUMPI PUSH1 0x3F NOT DUP9 DUP7 SUB ADD DUP5 MSTORE PUSH2 0x1056 DUP6 DUP4 MLOAD PUSH2 0xF7C JUMP JUMPDEST SWAP5 POP SWAP3 DUP6 ADD SWAP3 SWAP1 DUP6 ADD SWAP1 PUSH1 0x1 ADD PUSH2 0x103A JUMP JUMPDEST POP SWAP3 SWAP8 SWAP7 POP POP POP POP POP POP POP JUMP JUMPDEST PUSH1 0x0 PUSH1 0x20 DUP3 DUP5 SUB SLT ISZERO PUSH2 0x1087 JUMPI PUSH1 0x0 DUP1 REVERT JUMPDEST DUP2 CALLDATALOAD PUSH1 0x1 PUSH1 0x1 PUSH1 0xA0 SHL SUB DUP2 AND DUP2 EQ PUSH2 0xFD5 JUMPI PUSH1 0x0 DUP1 REVERT JUMPDEST PUSH1 0x0 DUP1 DUP4 PUSH1 0x1F DUP5 ADD SLT PUSH2 0x10B0 JUMPI PUSH1 0x0 DUP1 REVERT JUMPDEST POP DUP2 CALLDATALOAD PUSH8 0xFFFFFFFFFFFFFFFF DUP2 GT ISZERO PUSH2 0x10C8 JUMPI PUSH1 0x0 DUP1 REVERT JUMPDEST PUSH1 0x20 DUP4 ADD SWAP2 POP DUP4 PUSH1 0x20 DUP3 DUP6 ADD ADD GT ISZERO PUSH2 0x10E0 JUMPI PUSH1 0x0 DUP1 REVERT JUMPDEST SWAP3 POP SWAP3 SWAP1 POP JUMP JUMPDEST PUSH1 0x0 DUP1 PUSH1 0x0 DUP1 PUSH1 0x0 DUP1 PUSH1 0x0 PUSH1 0x80 DUP9 DUP11 SUB SLT ISZERO PUSH2 0x1102 JUMPI PUSH1 0x0 DUP1 REVERT JUMPDEST DUP8 CALLDATALOAD PUSH8 0xFFFFFFFFFFFFFFFF DUP1 DUP3 GT ISZERO PUSH2 0x111A JUMPI PUSH1 0x0 DUP1 REVERT JUMPDEST PUSH2 0x1126 DUP12 DUP4 DUP13 ADD PUSH2 0x109E JUMP JUMPDEST SWAP1 SWAP10 POP SWAP8 POP PUSH1 0x20 DUP11 ADD CALLDATALOAD SWAP2 POP DUP1 DUP3 GT ISZERO PUSH2 0x113F JUMPI PUSH1 0x0 DUP1 REVERT JUMPDEST PUSH2 0x114B DUP12 DUP4 DUP13 ADD PUSH2 0x109E JUMP JUMPDEST SWAP1 SWAP8 POP SWAP6 POP PUSH1 0x40 DUP11 ADD CALLDATALOAD SWAP2 POP DUP1 DUP3 GT ISZERO PUSH2 0x1164 JUMPI PUSH1 0x0 DUP1 REVERT JUMPDEST POP PUSH2 0x1171 DUP11 DUP3 DUP12 ADD PUSH2 0x109E JUMP JUMPDEST SWAP9 SWAP12 SWAP8 SWAP11 POP SWAP6 SWAP9 SWAP5 SWAP8 SWAP6 SWAP7 PUSH1 0x60 SWAP1 SWAP6 ADD CALLDATALOAD SWAP5 SWAP4 POP POP POP POP JUMP JUMPDEST PUSH4 0x4E487B71 PUSH1 0xE0 SHL PUSH1 0x0 MSTORE PUSH1 0x41 PUSH1 0x4 MSTORE PUSH1 0x24 PUSH1 0x0 REVERT JUMPDEST DUP1 CALLDATALOAD PUSH4 0xFFFFFFFF DUP2 AND DUP2 EQ PUSH2 0x11B4 JUMPI PUSH1 0x0 DUP1 REVERT JUMPDEST SWAP2 SWAP1 POP JUMP JUMPDEST PUSH1 0x0 PUSH1 0x80 DUP3 DUP5 SUB SLT ISZERO PUSH2 0x11CB JUMPI PUSH1 0x0 DUP1 REVERT JUMPDEST DUP3 PUSH1 0x1F DUP4 ADD SLT PUSH2 0x11DA JUMPI PUSH1 0x0 DUP1 REVERT JUMPDEST PUSH1 0x40 MLOAD PUSH1 0x80 DUP2 ADD DUP2 DUP2 LT PUSH8 0xFFFFFFFFFFFFFFFF DUP3 GT OR ISZERO PUSH2 0x11FD JUMPI PUSH2 0x11FD PUSH2 0x118A JUMP JUMPDEST PUSH1 0x40 MSTORE DUP1 PUSH1 0x80 DUP5 ADD DUP6 DUP2 GT ISZERO PUSH2 0x1212 JUMPI PUSH1 0x0 DUP1 REVERT JUMPDEST DUP5 JUMPDEST DUP2 DUP2 LT ISZERO PUSH2 0x1233 JUMPI PUSH2 0x1225 DUP2 PUSH2 0x11A0 JUMP JUMPDEST DUP4 MSTORE PUSH1 0x20 SWAP3 DUP4 ADD SWAP3 ADD PUSH2 0x1214 JUMP JUMPDEST POP SWAP2 SWAP6 SWAP5 POP POP POP POP POP JUMP JUMPDEST DUP1 CALLDATALOAD PUSH8 0xFFFFFFFFFFFFFFFF DUP2 AND DUP2 EQ PUSH2 0x11B4 JUMPI PUSH1 0x0 DUP1 REVERT JUMPDEST DUP1 ISZERO ISZERO DUP2 EQ PUSH2 0xD5A JUMPI PUSH1 0x0 DUP1 REVERT JUMPDEST PUSH1 0x0 PUSH1 0xA0 DUP3 DUP5 SUB SLT ISZERO PUSH2 0x1276 JUMPI PUSH1 0x0 DUP1 REVERT JUMPDEST PUSH1 0x40 MLOAD PUSH1 0xA0 DUP2 ADD DUP2 DUP2 LT PUSH8 0xFFFFFFFFFFFFFFFF DUP3 GT OR ISZERO PUSH2 0x1299 JUMPI PUSH2 0x1299 PUSH2 0x118A JUMP JUMPDEST PUSH1 0x40 MSTORE SWAP1 POP DUP1 PUSH2 0x12A8 DUP4 PUSH2 0x11A0 JUMP JUMPDEST DUP2 MSTORE PUSH2 0x12B6 PUSH1 0x20 DUP5 ADD PUSH2 0x123E JUMP JUMPDEST PUSH1 0x20 DUP3 ADD MSTORE PUSH2 0x12C7 PUSH1 0x40 DUP5 ADD PUSH2 0x123E JUMP JUMPDEST PUSH1 0x40 DUP3 ADD MSTORE PUSH1 0x60 DUP4 ADD CALLDATALOAD PUSH2 0x12DA DUP2 PUSH2 0x1256 JUMP JUMPDEST PUSH1 0x60 DUP3 ADD MSTORE PUSH1 0x80 SWAP3 DUP4 ADD CALLDATALOAD SWAP3 ADD SWAP2 SWAP1 SWAP2 MSTORE SWAP2 SWAP1 POP JUMP JUMPDEST PUSH1 0x0 DUP1 PUSH1 0x0 DUP1 PUSH1 0x0 DUP1 PUSH1 0x0 DUP1 PUSH2 0x120 DUP10 DUP12 SUB SLT ISZERO PUSH2 0x130D JUMPI PUSH1 0x0 DUP1 REVERT JUMPDEST DUP9 CALLDATALOAD PUSH8 0xFFFFFFFFFFFFFFFF DUP1 DUP3 GT ISZERO PUSH2 0x1325 JUMPI PUSH1 0x0 DUP1 REVERT JUMPDEST PUSH2 0x1331 DUP13 DUP4 DUP14 ADD PUSH2 0x109E JUMP JUMPDEST SWAP1 SWAP11 POP SWAP9 POP PUSH1 0x20 DUP12 ADD CALLDATALOAD SWAP2 POP DUP1 DUP3 GT ISZERO PUSH2 0x134A JUMPI PUSH1 0x0 DUP1 REVERT JUMPDEST DUP2 DUP12 ADD SWAP2 POP DUP12 PUSH1 0x1F DUP4 ADD SLT PUSH2 0x135E JUMPI PUSH1 0x0 DUP1 REVERT JUMPDEST DUP2 CALLDATALOAD DUP2 DUP2 GT ISZERO PUSH2 0x136D JUMPI PUSH1 0x0 DUP1 REVERT JUMPDEST DUP13 PUSH1 0x20 DUP3 PUSH1 0x5 SHL DUP6 ADD ADD GT ISZERO PUSH2 0x1382 JUMPI PUSH1 0x0 DUP1 REVERT JUMPDEST PUSH1 0x20 DUP4 ADD SWAP9 POP DUP1 SWAP8 POP POP PUSH1 0x40 DUP12 ADD CALLDATALOAD SWAP2 POP DUP1 DUP3 GT ISZERO PUSH2 0x13A0 JUMPI PUSH1 0x0 DUP1 REVERT JUMPDEST POP PUSH2 0x13AD DUP12 DUP3 DUP13 ADD PUSH2 0x109E JUMP JUMPDEST SWAP1 SWAP6 POP SWAP4 POP POP PUSH1 0x60 DUP10 ADD CALLDATALOAD SWAP2 POP PUSH2 0x13C7 DUP11 PUSH1 0x80 DUP12 ADD PUSH2 0x1264 JUMP JUMPDEST SWAP1 POP SWAP3 SWAP6 SWAP9 POP SWAP3 SWAP6 SWAP9 SWAP1 SWAP4 SWAP7 POP JUMP JUMPDEST PUSH4 0x4E487B71 PUSH1 0xE0 SHL PUSH1 0x0 MSTORE PUSH1 0x11 PUSH1 0x4 MSTORE PUSH1 0x24 PUSH1 0x0 REVERT JUMPDEST DUP1 DUP3 ADD DUP1 DUP3 GT ISZERO PUSH2 0xADB JUMPI PUSH2 0xADB PUSH2 0x13D6 JUMP JUMPDEST PUSH1 0x1 DUP2 DUP2 SHR SWAP1 DUP3 AND DUP1 PUSH2 0x1413 JUMPI PUSH1 0x7F DUP3 AND SWAP2 POP JUMPDEST PUSH1 0x20 DUP3 LT DUP2 SUB PUSH2 0x1433 JUMPI PUSH4 0x4E487B71 PUSH1 0xE0 SHL PUSH1 0x0 MSTORE PUSH1 0x22 PUSH1 0x4 MSTORE PUSH1 0x24 PUSH1 0x0 REVERT JUMPDEST POP SWAP2 SWAP1 POP JUMP JUMPDEST DUP1 DUP3 MUL DUP2 ISZERO DUP3 DUP3 DIV DUP5 EQ OR PUSH2 0xADB JUMPI PUSH2 0xADB PUSH2 0x13D6 JUMP JUMPDEST PUSH1 0x0 DUP3 PUSH2 0x146D JUMPI PUSH4 0x4E487B71 PUSH1 0xE0 SHL PUSH1 0x0 MSTORE PUSH1 0x12 PUSH1 0x4 MSTORE PUSH1 0x24 PUSH1 0x0 REVERT JUMPDEST POP DIV SWAP1 JUMP JUMPDEST PUSH1 0x0 PUSH1 0x20 DUP3 DUP5 SUB SLT ISZERO PUSH2 0x1484 JUMPI PUSH1 0x0 DUP1 REVERT JUMPDEST POP MLOAD SWAP2 SWAP1 POP JUMP JUMPDEST PUSH1 0x0 PUSH1 0x20 DUP3 DUP5 SUB SLT ISZERO PUSH2 0x149D JUMPI PUSH1 0x0 DUP1 REVERT JUMPDEST DUP2 MLOAD PUSH2 0xFD5 DUP2 PUSH2 0x1256 JUMP JUMPDEST DUP2 DUP2 SUB DUP2 DUP2 GT ISZERO PUSH2 0xADB JUMPI PUSH2 0xADB PUSH2 0x13D6 JUMP JUMPDEST DUP2 DUP4 MSTORE DUP2 DUP2 PUSH1 0x20 DUP6 ADD CALLDATACOPY POP PUSH1 0x0 DUP3 DUP3 ADD PUSH1 0x20 SWAP1 DUP2 ADD SWAP2 SWAP1 SWAP2 MSTORE PUSH1 0x1F SWAP1 SWAP2 ADD PUSH1 0x1F NOT AND SWAP1 SWAP2 ADD ADD SWAP1 JUMP JUMPDEST PUSH1 0x80 DUP2 MSTORE PUSH1 0x0 PUSH2 0x14F8 PUSH1 0x80 DUP4 ADD DUP10 DUP12 PUSH2 0x14BB JUMP JUMPDEST DUP3 DUP2 SUB PUSH1 0x20 DUP5 ADD MSTORE PUSH2 0x150B DUP2 DUP9 DUP11 PUSH2 0x14BB JUMP JUMPDEST SWAP1 POP DUP3 DUP2 SUB PUSH1 0x40 DUP5 ADD MSTORE PUSH2 0x1520 DUP2 DUP7 DUP9 PUSH2 0x14BB JUMP JUMPDEST SWAP2 POP POP DUP3 PUSH1 0x60 DUP4 ADD MSTORE SWAP9 SWAP8 POP POP POP POP POP POP POP POP JUMP JUMPDEST PUSH1 0x20 DUP2 MSTORE PUSH1 0x0 PUSH2 0x1549 PUSH1 0x20 DUP4 ADD DUP5 DUP7 PUSH2 0x14BB JUMP JUMPDEST SWAP5 SWAP4 POP POP POP POP JUMP JUMPDEST PUSH1 0x0 PUSH2 0x120 DUP1 DUP4 MSTORE PUSH2 0x1566 DUP2 DUP5 ADD DUP12 DUP14 PUSH2 0x14BB JUMP JUMPDEST DUP4 DUP2 SUB PUSH1 0x20 DUP6 DUP2 ADD SWAP2 SWAP1 SWAP2 MSTORE DUP10 DUP3 MSTORE DUP11 SWAP3 POP SWAP1 DUP2 ADD PUSH1 0x0 JUMPDEST DUP11 DUP2 LT ISZERO PUSH2 0x15AB JUMPI PUSH8 0xFFFFFFFFFFFFFFFF PUSH2 0x1598 DUP6 PUSH2 0x123E JUMP JUMPDEST AND DUP3 MSTORE SWAP3 DUP3 ADD SWAP3 SWAP1 DUP3 ADD SWAP1 PUSH1 0x1 ADD PUSH2 0x157E JUMP JUMPDEST POP DUP5 DUP2 SUB PUSH1 0x40 DUP7 ADD MSTORE PUSH2 0x15BF DUP2 DUP10 DUP12 PUSH2 0x14BB JUMP JUMPDEST SWAP4 POP POP DUP6 PUSH1 0x60 DUP6 ADD MSTORE PUSH4 0xFFFFFFFF DUP6 MLOAD AND PUSH1 0x80 DUP6 ADD MSTORE DUP1 DUP6 ADD MLOAD SWAP2 POP POP PUSH8 0xFFFFFFFFFFFFFFFF DUP1 DUP3 AND PUSH1 0xA0 DUP6 ADD MSTORE DUP1 PUSH1 0x40 DUP7 ADD MLOAD AND PUSH1 0xC0 DUP6 ADD MSTORE POP POP PUSH1 0x60 DUP4 ADD MLOAD ISZERO ISZERO PUSH1 0xE0 DUP4 ADD MSTORE PUSH1 0x80 DUP4 ADD MLOAD PUSH2 0x100 DUP4 ADD MSTORE SWAP10 SWAP9 POP POP POP POP POP POP POP POP POP JUMP JUMPDEST PUSH1 0x1F DUP3 GT ISZERO PUSH2 0x1669 JUMPI PUSH1 0x0 DUP2 DUP2 MSTORE PUSH1 0x20 DUP2 KECCAK256 PUSH1 0x1F DUP6 ADD PUSH1 0x5 SHR DUP2 ADD PUSH1 0x20 DUP7 LT ISZERO PUSH2 0x1646 JUMPI POP DUP1 JUMPDEST PUSH1 0x1F DUP6 ADD PUSH1 0x5 SHR DUP3 ADD SWAP2 POP JUMPDEST DUP2 DUP2 LT ISZERO PUSH2 0x1665 JUMPI DUP3 DUP2 SSTORE PUSH1 0x1 ADD PUSH2 0x1652 JUMP JUMPDEST POP POP POP JUMPDEST POP POP POP JUMP JUMPDEST PUSH8 0xFFFFFFFFFFFFFFFF DUP4 GT ISZERO PUSH2 0x1686 JUMPI PUSH2 0x1686 PUSH2 0x118A JUMP JUMPDEST PUSH2 0x169A DUP4 PUSH2 0x1694 DUP4 SLOAD PUSH2 0x13FF JUMP JUMPDEST DUP4 PUSH2 0x161F JUMP JUMPDEST PUSH1 0x0 PUSH1 0x1F DUP5 GT PUSH1 0x1 DUP2 EQ PUSH2 0x16CE JUMPI PUSH1 0x0 DUP6 ISZERO PUSH2 0x16B6 JUMPI POP DUP4 DUP3 ADD CALLDATALOAD JUMPDEST PUSH1 0x0 NOT PUSH1 0x3 DUP8 SWAP1 SHL SHR NOT AND PUSH1 0x1 DUP7 SWAP1 SHL OR DUP4 SSTORE PUSH2 0x1728 JUMP JUMPDEST PUSH1 0x0 DUP4 DUP2 MSTORE PUSH1 0x20 SWAP1 KECCAK256 PUSH1 0x1F NOT DUP7 AND SWAP1 DUP4 JUMPDEST DUP3 DUP2 LT ISZERO PUSH2 0x16FF JUMPI DUP7 DUP6 ADD CALLDATALOAD DUP3 SSTORE PUSH1 0x20 SWAP5 DUP6 ADD SWAP5 PUSH1 0x1 SWAP1 SWAP3 ADD SWAP2 ADD PUSH2 0x16DF JUMP JUMPDEST POP DUP7 DUP3 LT ISZERO PUSH2 0x171C JUMPI PUSH1 0x0 NOT PUSH1 0xF8 DUP9 PUSH1 0x3 SHL AND SHR NOT DUP5 DUP8 ADD CALLDATALOAD AND DUP2 SSTORE JUMPDEST POP POP PUSH1 0x1 DUP6 PUSH1 0x1 SHL ADD DUP4 SSTORE JUMPDEST POP POP POP POP POP JUMP JUMPDEST PUSH1 0x60 DUP2 MSTORE PUSH1 0x0 PUSH2 0x1743 PUSH1 0x60 DUP4 ADD DUP8 DUP10 PUSH2 0x14BB JUMP JUMPDEST DUP3 DUP2 SUB PUSH1 0x20 DUP5 ADD MSTORE PUSH2 0x1756 DUP2 DUP7 DUP9 PUSH2 0x14BB JUMP JUMPDEST SWAP2 POP POP DUP3 PUSH1 0x40 DUP4 ADD MSTORE SWAP7 SWAP6 POP POP POP POP POP POP JUMP INVALID LOG2 PUSH5 0x6970667358 0x22 SLT KECCAK256 0xDC SLOAD 0xB1 PUSH5 0x95964C3216 RETURNDATASIZE 0xEB MSTORE8 SWAP7 0xC8 0xAB DUP4 0x27 LOG4 0x4A 0xA6 RETURNDATASIZE STOP 0xEB SWAP12 SWAP11 0x2E SWAP13 0xD9 CALLVALUE 0xC9 PUSH23 0xF764736F6C634300081200330000000000000000000000 ",
  "sha1": "163349a25495372531a951e7340ca1d61bcce8ad",
  "source": "//SPDX-License-Identifier: MIT\npragma solidity ^0.8.0;\n\nimport \"@openzeppelin/contracts/security/ReentrancyGuard.sol\";\nimport \"@openzeppelin/contracts/token/ERC20/IERC20.sol\";\nimport \"@openzeppelin/contracts/access/Ownable.sol\";\nimport \"../interfaces/IDepositContract.sol\";\nimport \"../interfaces/mocks/ISSVNetwork.sol\";\nimport \"./SSVETH.sol\";\n\n/** this contract utilizes custom errors to optimize gas usage, instead of normal `require` conditionals.\n * By using custom errors instead, we don't need to use up storage space on the `require`'s revert string messages.\n * This also allows developers and users to see customizable output values when the custom error is invoked */\nerror StakingPool__CantStakeZeroAmount(uint valueSent);\nerror StakingPool__OnlyWhitelistAddress(\n    address caller,\n    address whitelistedAddress\n);\n\ncontract StakingPool is Ownable, ReentrancyGuard {\n    address public WhitelistKeyGenerator;\n    address public WITHDRAWAL_ADDRESS;\n    IDepositContract immutable DepositContract;\n    SSVETH public ssvETH;\n    uint256 public immutable VALIDATOR_AMOUNT = 32 * 1e18;\n    address public SSV_TOKEN_ADDR;\n    address public SSV_CONTRACT_ADDR;\n    uint32[4] OperatorIDs;\n    bytes[] public Validators;\n    // address public Oracle_address;\n\n    uint256 private beaconRewards;\n    uint256 private executionRewards;\n\n    mapping(address => uint256) private userStake;\n\n    event UserStaked(address user_address, uint256 amount);\n    event PubKeyDeposited(bytes pubkey);\n    event OperatorIDsChanged(uint32[4] newOperators);\n    event SharePriceUpdated(uint256 newPrice);\n    event KeySharesDeposited(\n        bytes pubkey,\n        bytes sharesPublicKeys,\n        uint256 amount\n    );\n\n    constructor(\n        address keyGenerator,\n        address depositAddress,\n        address withdrawal,\n        address ssv_contract,\n        address ssv_token,\n        uint32[4] memory ids\n    ) {\n        WITHDRAWAL_ADDRESS = withdrawal;\n        WhitelistKeyGenerator = keyGenerator;\n        DepositContract = IDepositContract(depositAddress);\n        SSVETH _ssvETH = new SSVETH();\n        ssvETH = SSVETH(address(_ssvETH));\n        SSV_CONTRACT_ADDR = ssv_contract;\n        SSV_TOKEN_ADDR = ssv_token;\n        OperatorIDs = ids;\n    }\n\n    /**\n     * @notice called when the contract receives eth\n     */\n    receive() external payable {\n        updateExecutionRewards(msg.value);\n    }\n\n    /**\n     * @notice Get operator ids, check operators here https://explorer.ssv.network/\n     */\n    function getOperators() public view returns (uint32[4] memory) {\n        return OperatorIDs;\n    }\n\n    /**\n     * @notice Get validators array\n     */\n    function getValidators() public view returns (bytes[] memory) {\n        return Validators;\n    }\n\n    /**\n     * @notice Get user's staked amount\n     */\n    function getUserStake(address _userAddress) public view returns (uint256) {\n        return userStake[_userAddress];\n    }\n\n    /**\n     * @notice Get share price\n     */\n    function getShareprice() public view returns (uint256) {\n        uint256 _sharePrice = ssvETH.sharePrice();\n        return _sharePrice;\n    }\n\n    /**\n     * @notice Get beacon rewards\n     */\n    function getBeaconRewards() public view returns (uint256) {\n        return beaconRewards;\n    }\n\n    /**\n     * @notice Get execution rewards\n     */\n    function getExecutionRewards() public view returns (uint256) {\n        return executionRewards;\n    }\n\n    /**\n     * @dev Update operators\n     * @param _newOperators: Array of the the new operators Ids\n     */\n    function updateOperators(uint32[4] memory _newOperators) public onlyOwner {\n        OperatorIDs = _newOperators;\n        emit OperatorIDsChanged(_newOperators);\n    }\n\n    /**\n     * @dev Update share price of the staking pool\n     * @param _newBeaconRewards: The new beacon rewards amount\n     */\n    function updateBeaconRewards(uint256 _newBeaconRewards) external onlyOwner {\n        beaconRewards = _newBeaconRewards;\n        uint256 _newSharePrice = (beaconRewards +\n            executionRewards +\n            (Validators.length * 32)) / (Validators.length * 32);\n        updateSharePrice(_newSharePrice);\n    }\n\n    /**\n     * @notice Stake tokens\n     */\n\n    function stake() public payable {\n        /** Ensuring that the caller has passed atleast some value to the function/contract. \n        This contract utilizes custom errors to optimize gas usage, instead of normal `require` conditionals */\n        if (msg.value <= 0) {\n            revert StakingPool__CantStakeZeroAmount(msg.value);\n        }\n        uint256 amount_minted = (msg.value * ssvETH.sharePrice()) / 1e18;\n        ssvETH.mint(msg.sender, amount_minted);\n        emit UserStaked(msg.sender, msg.value);\n        userStake[msg.sender] += msg.value;\n    }\n\n    /**\n     * @notice Unstake tokens\n     * @param _amount: Amount to be unstaked\n     */\n    function unStake(uint256 _amount) public {\n        ssvETH.transferFrom(msg.sender, address(this), _amount);\n        uint256 _amount_to_transfer = (_amount / ssvETH.sharePrice()) * 1e18;\n        payable(msg.sender).transfer(_amount_to_transfer);\n        userStake[msg.sender] -= _amount;\n    }\n\n    /**\n     * @notice Deposit a validator to the deposit contract\n     * @param _pubkey: Public key of the validator\n     * @param _withdrawal_credentials: Withdrawal credentials of the validator\n     * @param _signature: Signature of the deposit data\n     * @param _deposit_data_root: Root of the deposit data\n     */\n    function depositValidator(\n        bytes calldata _pubkey,\n        bytes calldata _withdrawal_credentials,\n        bytes calldata _signature,\n        bytes32 _deposit_data_root\n    ) external {\n        // Deposit the validator to the deposit contract\n        DepositContract.deposit{value: VALIDATOR_AMOUNT}(\n            _pubkey,\n            _withdrawal_credentials,\n            _signature,\n            _deposit_data_root\n        );\n        // Emit an event to log the deposit of the public key\n        emit PubKeyDeposited(_pubkey);\n    }\n\n    /**\n     * @notice Deposit shares for a validator\n     * @param _pubkey: Public key of the validator\n     * @param _operatorIds: IDs of the validator's operators\n     * @param _shares: Public keys of the shares\n     * @param _amount: Amount of tokens to be deposited\n     * @param _cluster: Latest Cluster information\n     * @dev Callable by the whitelisted address\n     */\n    function depositShares(\n        bytes calldata _pubkey,\n        uint64[] calldata _operatorIds,\n        bytes calldata _shares,\n        uint256 _amount,\n        ISSVNetwork.Cluster memory _cluster\n    ) external {\n        /* Check if the message sender is the whitelisted address\n         * This contract utilizes custom errors to optimize gas usage, instead of normal `require` conditionals */\n        if (msg.sender != WhitelistKeyGenerator) {\n            revert StakingPool__OnlyWhitelistAddress(\n                msg.sender,\n                WhitelistKeyGenerator\n            );\n        }\n        // Approve the transfer of tokens to the SSV contract\n        IERC20(SSV_TOKEN_ADDR).approve(SSV_CONTRACT_ADDR, _amount);\n        // Register the validator and deposit the shares\n        ISSVNetwork(SSV_CONTRACT_ADDR).registerValidator(\n            _pubkey,\n            _operatorIds,\n            _shares,\n            _amount,\n            _cluster\n        );\n        // Add the public key to the list of validators\n        Validators.push(_pubkey);\n        // Emit an event to log the deposit of shares\n        emit KeySharesDeposited(_pubkey, _shares, _amount);\n    }\n\n    /**\n     * @notice update execution rewards\n     * @param _newExecutionRewards:  Execution rewards amount added\n     */\n    function updateExecutionRewards(uint256 _newExecutionRewards) internal {\n        executionRewards += _newExecutionRewards;\n    }\n\n    /**\n     * @dev Update share price of the staking pool\n     * @param _newSharePrice: The new share price amount\n     */\n    function updateSharePrice(uint256 _newSharePrice) internal {\n        ssvETH.changeSharePrice(_newSharePrice);\n        emit SharePriceUpdated(_newSharePrice);\n    }\n}\n",
  "sourcePath": "contracts/StakingPool.sol",
  "type": "contract"
}